:020000040800F2
:100000004804002045010008270B00081F0B0008CA
:10001000230B0008AD090008A7110008000000002C
:100020000000000000000000000000006D0D00084E
:10003000B109000800000000D90B0008810E00087B
:100040005F0100085F0100085F0100085F01000810
:100050005F0100085F0100085F0100085F01000800
:100060005F0100085F0100085F0100085F010008F0
:100070005F0100085F0100085F0100085F010008E0
:100080005F0100085F0100085F0100085F010008D0
:100090005F0100085F0100085F0100085F010008C0
:1000A0005F0100085F0100085F0100085F010008B0
:1000B0005F0100085F0100085F0100085F010008A0
:1000C0005F0100085F0100085F0100085F01000890
:1000D0005F010008E50E00085F0100085F010008ED
:1000E0005F0100085F0100085F0100085F01000870
:1000F0005F0100085F0100085F0100085F01000860
:100100005F0100085F0100085F0100085F0100084F
:100110005F0100085F0100085F0100085F0100083F
:100120005F0100085F0100085F0100085F0100082F
:10013000DFF80CD000F0BAFA00480047A918000810
:10014000480400200648804706480047FEE7FEE7CF
:10015000FEE7FEE7FEE7FEE7FEE7FEE7FEE7FEE777
:10016000850E0008310100080649074A0868504317
:1001700043F23902104408604008704701490860A2
:1001800070470000280000206D4EC6412DE9FE4F4B
:1001900081EA030404F0004421F0004100944FF090
:1001A000000B23F0004350EA01045ED052EA03043E
:1001B0005BD0C3F30A54C1F30A552C44A4F2F334C0
:1001C0000194A0FB0254C1F3130141F48011C3F365
:1001D000130343F4801301FB024400FB034E840A23
:1001E000970A44EA815447EA8357A4FB07680295BB
:1001F0008D0A05FB07854FEA932C04FB0C54270559
:10020000029D4FEA065847EA1637B5EB08056EEB34
:10021000070C870E920E47EA811742EA8312A7FB6A
:100220000201B6EB0B0164EB00042B0D43EA0C3327
:100230005E1844EB1C50DA465146E7FB0201C5F359
:1002400013044FEA0B3343EA14534FEA0432019C80
:1002500043EA0603A4F10C040294009CCDE900B427
:1002600000F000F903B0BDE8F08F00200146F9E787
:100270002DE9F04D81EA030404F0004B21F0004524
:1002800014464FF0000A23F0004150EA050220D046
:1002900054EA01021DD0C5F30A570246C5F3130301
:1002A000C1F31300C1F30A5640F4801543F48013E0
:1002B000A7EB0608101BD64608F2FD3873EB0500C5
:1002C00002D308F1010801E092185B41B8F1000F78
:1002D00003DA00200146BDE8F08D00204FF48011C4
:1002E000064684460EE0171B73EB050705D3121B69
:1002F00063EB050306434CEA010C49084FEA300062
:1003000092185B4150EA0107EDD152EA030012D086
:1003100082EA040083EA0501084305D0101BAB41C3
:1003200006D20122002306E000224FF0004302E043
:100330006FF0010253101AEB06004CEB085110EB62
:100340000A0041EB0B01BDE8F04D00F07CB80EB5A2
:10035000C10F80EAE0700844CA07002140F233432D
:100360008DE80E000A460B4600F07CF803B000BD95
:100370000EB540F2334102910021CDE900110A4649
:100380000B4600F06FF803B000BD70B5C1F30A5220
:1003900001F000450024C1F3130140F2FF3341F4A2
:1003A00080119A4201DA002070BD40F233439A4234
:1003B000A2F2334203DC524200F035F800E09040F4
:1003C0002C43F1D0404270BDC1F30A5210B5C1F3C5
:1003D000130140F2FF3341F480119A4201DA002008
:1003E00010BD40F233439A42A2F2334203DC524240
:1003F00000F019F810BD904010BD30B50B46014615
:1004000000202022012409E021FA02F59D4205D3B3
:1004100003FA02F5491B04FA02F52844151EA2F15D
:100420000102F1DC30BD202A04DB203A21FA02F07F
:100430000021704721FA02F3D040C2F1200291401E
:1004400008431946704710B5141E73F1000408DA0A
:10045000401C41F1000192185B411A4301D120F088
:10046000010010BD2DE9F04D92469B4611B1B1FA45
:1004700081F202E0B0FA80F22032904600F028F9D2
:1004800004460F4640EA0A0041EA0B0153465A4629
:10049000084313D0114653EA010019D0C8F14002B5
:1004A0005046FFF7C0FF05460E46504659464246A5
:1004B00000F00EF9084305D0012004E0204639463B
:1004C000BDE8F08D0020054346EAE0762C43374333
:1004D0000A986305E40AA0EB08000022FD0A44EA3A
:1004E00047540A3002D500200146E9E701051019FA
:1004F0006941DDE9084500196941BDE8F04DA2E711
:100500002DE9FE4F804681EA0300C00F0C460090A3
:1005100021F0004123F00045B8EB0200A94105D2CB
:100520004046214690461C460B46024623F00040BA
:10053000104347D0270DC7F30A00C3F30A510290B6
:10054000401A019040286BDAC3F3130040F4801B7B
:100550000098924620B10023D2EB030A63EB0B0B09
:1005600001985946C0F14002504600F0B1F80646E5
:100570000D4650465946019A00F0B9F810EB0800B4
:100580006141002487EA115284EAE7731A4340D09C
:10059000009A62B3019A012A4FEA075215DC001B48
:1005A00061EB02014FF0004202EA0752CDE900423E
:1005B000001C41F5801132462B46FFF753FF03B074
:1005C000BDE8F08F40462146F9E7001B61EB0201D0
:1005D000001C41F5801300185B412018A2F500179C
:1005E00047EB030140EAD570B6196D4111E06D0883
:1005F0004FEA360645EAC0754FEA0752001B61EB29
:100600000201001C41F5801149084FEA3000001931
:10061000514132462B4603B0BDE8F04FFFF713BF00
:100620000098012240000023D0EB020263EBE0734C
:10063000009821464FEAE074B8EB000061EB04013A
:10064000E9E783F000435BE781F0004158E770B5CC
:1006500021F0004303430CD0C1F30A550024D5EB2D
:10066000040564EB0403D617AD1AB34102DB002086
:10067000014670BD201841EB025170BD30B5041E1B
:1006800071F1000404DB4FF00044404264EB0101CF
:10069000141E73F1000405DB1C464FF00043524268
:1006A00063EB0403994208BF904230BD064C074DEE
:1006B00006E0E06840F0010394E807009847103432
:1006C000AC42F6D3FFF738FD382400085824000860
:1006D000202A04DB203A00FA02F100207047914002
:1006E000C2F1200320FA03F3194390407047202AF7
:1006F00006DBCB17203A41FA02F043EAE07306E04A
:1007000041FA02F3D040C2F1200291400843194659
:1007100070472DE9F04D00231A461B1A8A4103DB6E
:1007200000200146BDE8F08DC1F30A52C1F3130168
:1007300041F480154FF0000BD10702D100186D4134
:10074000521E0027044640F2FF11384601EB620AB0
:100750003E468046024600204FF48011FFF763FEBC
:10076000C2197141BB1846EB0100B4EB030C75EBE9
:10077000000C04D3E41A65EB000517460E46241955
:1007800008F101006D4180463428E3DDF91946EB9C
:100790000600091BA84103D24FF0FF32134601E0C7
:1007A000002213461BEB070046EB0A51BDE8F04D53
:1007B000FFF749BE2DE9FC470446D4E9000140EAB1
:1007C00001096068FFF7D4FD07463A460B46002052
:1007D0004FF0804101F0E4F80546FFF7F5FD1D49B3
:1007E0000860A06808B149F40009E06808B149F45C
:1007F0008019206908B149F08009606908B149F0A1
:100800004009A06908B149F01009E06908B149F050
:1008100008094FEA19408DF80600012001F014F88C
:100820004FEA19208DF80500012001F00DF809F0BC
:10083000FF008DF80400012001F006F81020009060
:100840006946012000F0D2FC01A9032000F0CEFC93
:10085000BDE8FC871C000020F8B504460D4616468E
:1008600000960CB1802000900DB1402000906946A8
:10087000012000F0BBFCF8BD00B591B04FF48070D2
:100880000190072002900020039004900590012021
:10089000069007900890C005099000200A904FF438
:1008A00000200B9000200C900D9001200E900F90D6
:1008B0008020109001A8FFF77DFF00F076FC09A8CA
:1008C00000F015F800F071FC4FF420000990802032
:1008D000109009A800F00BF800F067FC00200990C8
:1008E0005020109009A800F002F811B000BD7CB5AE
:1008F00005460024A868044328680443E8690443C3
:10090000686808B144F48014E86808B144F400440D
:10091000286908B144F40054686908B144F40064DB
:10092000A86908B144F48064200C8DF80600042006
:1009300000F08AFF200A8DF80500042000F084FFF3
:10094000E0B28DF80400042000F07EFF0820009043
:100950006946012000F04AFC01A9032000F046FC92
:100960007CBD38B500F021FC58208DF800006946A8
:10097000012000F03BFC00F01DF80446204638BD85
:1009800070B50446FFF7EDFF05465DB106480078F7
:1009900008B9256004E004480078012800D16560AA
:1009A000012070BD0020FCE71800002000BFFEE71A
:1009B0007047000038B500246946032000F088F92C
:1009C000002201211046FFF747FF142000F03CFFF2
:1009D0000A49012000F07CF90848007800F007007F
:1009E000074908709DF8020001049DF8010001EB21
:1009F00000209DF800104418204638BD1900002042
:100A0000180000202DE9F0410246002500260020B4
:100A100000230024002791F803C00CF00F0591F883
:100A200003C00CF0100CBCF1000F03D091F802C011
:100A30004CEA050591F800C0BCF1000F31D01468F4
:100A400000202BE04FF0010C0CFA00F3B1F800C0CD
:100A50000CEA03069E4220D183004FF00F0C0CFAE3
:100A600003F7BC4305FA03FC4CEA040491F803C005
:100A7000BCF1280F06D14FF0010C0CFA00FCC2F8B3
:100A800014C00AE091F803C0BCF1480F05D14FF043
:100A9000010C0CFA00FCC2F810C0401C0828D1D38D
:100AA0001460B1F800C0BCF1FF0F34DD54680020C1
:100AB0002EE000F1080C4FF0010808FA0CF3B1F831
:100AC00000C00CEA03069E4221D183004FF00F0CB8
:100AD0000CFA03F7BC4305FA03FC4CEA040491F852
:100AE00003C0BCF1280F05D100F1080C08FA0CF87E
:100AF000C2F8148091F803C0BCF1480F07D100F18F
:100B0000080C4FF0010808FA0CF8C2F81080401CDD
:100B10000828CED35460BDE8F0810161704700BF62
:100B2000FEE700BFFEE7704708B54FF4A06000F095
:100B300049F812208DF8000001208DF801000020F6
:100B40008DF8020001208DF80300684600F002F8DD
:100B500008BD000070B5002100230F22C47804B343
:100B6000154C246804F4E064C4F5E064210AC1F182
:100B70000403CA40447804FA03F184781440214302
:100B800009010E4C0678A155047804F01F050124D4
:100B9000AC4005786D11AD0005F1E025C5F80041C8
:100BA00009E0047804F01F050124AC40044D0678E8
:100BB000761145F8264070BD0CED00E000E400E041
:100BC00080E100E002490143024A116070470000E1
:100BD0000000FA050CED00E07047000029B1064A5C
:100BE00092690243044B9A6104E0034A926982438A
:100BF000014B9A61704700000010024030B500219F
:100C00000022002400232D4D6D6805F00C0121B158
:100C1000042905D0082923D105E0294D056022E0EB
:100C2000274D05601FE0254D6D6805F47012234DBA
:100C30006D6805F48034022505EB92421CB9214D04
:100C4000554305600BE01D4D6D6805F400351DB181
:100C50001C4D5543056002E0194D5543056002E007
:100C6000174D056000BF00BF144D6D6805F0F00121
:100C70000909154D6B5C0568DD4045600F4D6D68D9
:100C800005F4E061090A104D6B5C4568DD40856044
:100C90000A4D6D6805F46051C90A0B4D6B5C4568DF
:100CA000DD40C560054D6D6805F44041890B074D79
:100CB0006B5CC568B5FBF3F5056130BD0010024003
:100CC00000127A0000093D00000000201000002002
:100CD0002DE9F04106460F464FF00008002400259C
:100CE000012020490860022000F0AEFD01201E49CD
:100CF000C1F8B001022000F0A7FD00201949091D2C
:100D00000860022000F0A0FD344622E04FF0000809
:100D100016E00020134908606806050E022000F066
:100D200093FD1148D0F824012843C5B201200D4994
:100D30000860022000F088FD08F1010000F0FF08C3
:100D4000B8F1080FE5DB381900F8015C0025601EDA
:100D5000C4B2002CDADC01200249091D0860BDE89C
:100D6000F0810000AC01224200002242704710B521
:100D700000F002F810BD00000CB5002001900090BA
:100D80003348006840F480303149086000BF304883
:100D9000006800F4003000900198401C0190009819
:100DA00018B90198B0F5A06FF1D12948006800F496
:100DB000003010B10120009001E000200090009868
:100DC000012843D12348006840F010002149086001
:100DD0000846006820F0030008600846006840F0FC
:100DE000020008601A48406819494860084640688F
:100DF00048600846406840F48060486008464068A3
:100E000020F47C1048600846406840F4E8104860D0
:100E10000846006840F08070086000BF0C48006819
:100E200000F000700028F9D00948406820F0030065
:100E3000074948600846406840F00200486000BF2B
:100E40000348406800F00C000828F9D10CBD0000F0
:100E50000010024000200240042808D14FF0E02199
:100E6000096941F004014FF0E022116107E04FF001
:100E7000E021096921F004014FF0E022116170477F
:100E80007047000010B51348006840F00100114998
:100E9000086008464068104908400E494860084606
:100EA00000680E4908400B4908600846006820F4B5
:100EB000802008600846406820F4FE0048604FF437
:100EC0001F008860FFF753FF4FF00060044908607F
:100ED00010BD0000001002400000FFF8FFFFF6FE0A
:100EE00008ED00E010B540F225510C4800F096F8EE
:100EF00070B10A4800F04EF9C4B22146074800F02C
:100F00004EF900BF4021054800F07BF80128F9D1D7
:100F10004021024800F060F810BD00000038014098
:100F200010B586B0044601210420FFF757FE0121C9
:100F30008803FFF753FE01210846FFF74FFE4FF4E9
:100F40000070ADF8140003208DF8160018208DF8FD
:100F5000170005A91E48FFF755FD4FF48060ADF856
:100F6000140004208DF8170005A91948FFF74AFD61
:100F700001940020ADF80800ADF80A00ADF80C00AF
:100F8000ADF810000C20ADF80E0001A9114800F0DA
:100F900095F801210F4800F028F840210D4800F095
:100FA0001BF8012240F225510A4800F061F8252083
:100FB0008DF8000003208DF801008DF8020001205B
:100FC0008DF803006846FFF7C5FD06B010BD0000B0
:100FD000000801400038014001F40072B2F5007FC2
:100FE00000D100BFCA430280704721B1828942F418
:100FF0000052828104E082894DF6FF731A4082819B
:10100000704702460020B1F5007F00D100BF138871
:101010000B400BB1012000E00020704770B5024684
:10102000002400230025002040F66A16B14200D1BA
:1010300000BFC1F3421501F01F03012606FA03F3B6
:10104000012D02D19689334006E0022D02D1168A85
:10105000334001E0968A33400C12012606FA04F46C
:101060001688344013B10CB1012000E0002070BD9F
:10107000F0B50346002400260025002040F66A173C
:10108000B94200D100BF1846C1F3421401F01F0657
:10109000012707FA06F5012C01D10C3004E0022CDF
:1010A00001D1103000E014301AB107682F430760F7
:1010B00002E00768AF430760F0BD00002DE9F0478C
:1010C00086B005460E460024A24600BFA146002772
:1010D000B08900B100BF2F462C8A4CF6FF70044047
:1010E000F08804432C82AC894EF6F3100440B0889B
:1010F00031890843718908430443AC81AC8A4FF6B7
:10110000FF400440B0890443AC8201A8FFF776FD9C
:101110001F48874202D1DDF810A001E0DDF80CA0E5
:10112000A88900F4004040B10AEBCA0000EB0A10A5
:1011300031684900B0FBF1F807E00AEBCA0000EBA8
:101140000A1031688900B0FBF1F86420B8FBF0F0B8
:1011500004012009642101FB1089A88900F40040E2
:1011600040B1322000EBC900B0FBF1F000F0070005
:10117000044308E0322000EB09106421B0FBF1F0D9
:1011800000F00F0004432C8106B0BDE8F08700009A
:101190000038014001468888C0F308007047C1F359
:1011A00008028280704700BFFEE708B51CE00022FD
:1011B00001211046FFF750FB69460120FFF788FD2B
:1011C0009DF8000000F0400020B10A2000F01EFB56
:1011D000002008BD9DF8000000F0800008B9012043
:1011E000F7E7032000F012FBE1E700002DE9F041F2
:1011F00005460E4600270024A0460120224908602B
:10120000022000F021FB01202049C1F8B00102209A
:1012100000F01AFB00201C49091D0860022000F0A4
:1012200013FB2C4628E0301910F8017C4FF0000821
:101230001DE000201449086007F08000802803D1D9
:101240000120091F086003E000200F49091F086002
:10125000022000F0F9FA01200B490860022000F09A
:10126000F3FA7806070E08F1010000F0FF08B8F164
:10127000080FDEDB601EC4B2002CD4DC0120024962
:10128000091D0860BDE8F081AC0122420000224245
:101290000FB4054B10B503A9044A029800F0A8F852
:1012A00010BC5DF814FB0000851800082C0000201D
:1012B000490050EAC12018BF04204A0D18BF40F071
:1012C000010040F2FF72B2EB515F08BF40F0020034
:1012D000012808BF052070472DE9F0414F1E00EBA3
:1012E000C7010446D1E9000115461E4637F0060243
:1012F0000DD02A463346FEF749FF7F1E04EBC70395
:10130000D3E90023FFF7FCF837F00602F1D1022FF2
:1013100025D0042F13D0062F18BFBDE8F0812A4630
:101320003346FEF733FFD4E90A23FFF7E9F82A46EC
:101330003346FEF72BFFD4E90823FFF7E1F82A46EE
:101340003346FEF723FFD4E90623FFF7D9F82A46F0
:101350003346FEF71BFFD4E90423FFF7D1F82A46F2
:101360003346FEF713FFD4E90223FFF7C9F82A46F4
:101370003346FEF70BFFD4E90023BDE8F041FFF749
:10138000BFB800000022134610460149FEF770BFA7
:101390000000F03FFFF7B4B8002213461046114694
:1013A000FEF766BF40F2013200204FF0E041FFF748
:1013B0004EB90000024A00201107FFF748B90000AB
:1013C00001FDFFFF02E008C8121F08C1002AFAD180
:1013D00070477047002001E001C1121F002AFBD1B5
:1013E000704700000149086070470000300000208D
:1013F0002DE9FF4F8BB088460546002606E02528DC
:101400000BD0DDE90D1290476D1C761C2878002862
:10141000F5D10FB03046BDE8F08F0024A146A246BA
:101420000122AE4900E0044315F8013F203B02FAD7
:1014300003F00842F7D128782A2810D06FF02F0245
:101440002878A0F13001092915D809EB890102EBB0
:10145000410144F0020400EB01096D1CF0E758F86B
:10146000041B5FEA010903D544F40054C9F10009E3
:1014700044F002046D1C28782E2817D115F8010FAE
:1014800044F004042A280ED06FF02F022878A0F12F
:10149000300109290AD80AEB8A0102EB410100EB6D
:1014A000010A6D1CF2E758F804AB6D1C28786C2813
:1014B0000FD006DC4C2817D068280DD06A2814D12C
:1014C00004E0742810D07A280FD10DE044F4001401
:1014D0000AE044F4801401E044F440146978814245
:1014E00002D104F580146D1C6D1C2878692865D024
:1014F00006DC00288DD0632827D0642806D15DE063
:101500006E2808D073282AD0752877D0DDE90D120F
:101510009047761CE0E0C4F30250022809D003286B
:101520000DD0D8F8001004280DD00E6008F1040882
:10153000D2E0D8F80010F217C1E90062F6E7D8F857
:1015400000100E80F2E70E70F0E718F8041B8DF81B
:10155000001000208DF80100EB46012003E058F850
:1015600004BB4FF0FF3061074FF0000701D40AE0E1
:101570007F1C57450DDA8742FADB1BF8071000295C
:10158000F6D106E07F1C8742FCDB1BF80710002920
:10159000F8D1DDE90D23A9EB07008146214600F0D3
:1015A000B1F83044C61904E0DDE90D121BF8010B57
:1015B00090477F1EF8D22146484688E058F8040B31
:1015C000C4F302514FF00A0B032900D100B20429E1
:1015D00000D140B2002802DA40422D2102E021056C
:1015E00005D52B218DF82410012104E006E0E10748
:1015F00010D02021F6E708AF089113E058F8040B4B
:10160000C4F302514FF00A0B032900D180B2042920
:1016100000D1C0B20021EEE75946FEF7EEFE3031B0
:1016200007F8011D0028F7D1ADEB070000F1200BF2
:10163000600702D524F4803401E04FF0010ADA4556
:1016400002DDAAEB0B0000E00020824600EB0B015C
:1016500008980144A9EB01000A90E00306D4DDE9F3
:101660000D2321460A9800F04DF806444FF000097A
:1016700008E009A911F80900DDE90D12904709F108
:101680000109761C08998945F3DBE0030CD5DDE9F7
:101690000D2321460A9800F035F8064404E0DDE900
:1016A0000D1230209047761CBAF10001AAF1010A10
:1016B000F5DC05E0DDE90D1217F8010B9047761C0B
:1016C000BBF10001ABF1010BF4DC0A982146DDE926
:1016D0000D2300F005F806446D1C97E6092801006B
:1016E0002DE9F041044600251E461746880404D41F
:1016F00005E039462020B0476D1C641EF9D5284608
:10170000BDE8F0812DE9F041044600251E469046D3
:10171000C80301D5302700E02027880404D505E060
:1017200041463846B0476D1C641EF9D52846BDE8D1
:10173000F08100001CB501211020FFF74FFA4FF493
:10174000E050ADF8000010208DF8030003208DF864
:10175000020069461D48FFF755F94FF4E0511B4858
:10176000FFF7DBF948208DF803004FF40070ADF867
:10177000000003208DF8020069461448FFF742F983
:10178000FF208DF8040001A90120FFF72FFDFF20A5
:101790008DF8040001A90120FFF728FDFF208DF836
:1017A000040001A90120FFF721FDFF208DF80400AE
:1017B00001A90120FFF71AFDFF208DF8040001A9FF
:1017C0000120FFF713FDFFF757F81CBD0010014083
:1017D00010B504466FF00400FFF73EFBE11704EB81
:1017E0005171C1F3C701074A11701046007800EB30
:1017F0004001C1EBC0104FF6FF7101EAC000024981
:10180000088010BD140000201600002001460D4A7B
:1018100012884A434FF0E0235A6100229A61012264
:101820001A6100BF4FF0E022106900F001021AB106
:1018300000F48032002AF5D000224FF0E0231A6134
:101840009A6170471600002001460D4A12784A43FB
:101850004FF0E0235A6100229A6101221A6100BF11
:101860004FF0E022106900F001021AB100F480325A
:10187000002AF5D000224FF0E0231A619A617047E8
:101880001400002070B504460D46E1B20548FFF78C
:1018900086FC00BF80210348FFF7B3FB0028F9D086
:1018A000204670BD003801401FB500BF00BF4FF09B
:1018B000000A00BFFFF7E6FA4820FFF789FF4FF460
:1018C000A060FFF77FF9FFF72FF94FF41650FFF7ED
:1018D00027FBFFF72FFF1420FFF7B6FFFFF72AFFC4
:1018E0001420FFF7B1FF4CE04FF47A7003902548C5
:1018F000FFF746F84FF0000B22480068052190FBE7
:10190000F1F201FB120002901F490868FEF736FC55
:10191000DA461CE01B4951F82A00FEF718FD804604
:1019200000221A4BFEF7A4FC0022194BCDE900015E
:10193000FEF79EFC06460022164BFEF727FC0446E7
:10194000FEF723FD0F4941F82A000AF1010ABAF116
:10195000040FDFDB0B4800684EF66021884201DD92
:101960004FF0010B074801680BA0FFF791FC4FF403
:101970007A70FFF769FF03480068052190FBF1F0DA
:1019800000BFB1E734000020280122420000F03FF0
:101990000000704160E3464125386C640A00000095
:1019A0002DE9F04D16460F4694B01C4621F000413B
:1019B00023F00042002814BF4FF0010C4FF0000C40
:1019C0000CEB470CFE4B0CEB03054FEA630C654533
:1019D0002BD3350018BF012505EB44051D44F94BF9
:1019E0009D4222D3F84B52EA060C02D09F4205D109
:1019F00048B914B000201946BDE8F08D002808BF92
:101A00004FF0000C01D04FF0010C0CEB470313F525
:101A1000001F0AD8002E14BF4FF0010C4FF0000C2D
:101A20000CEB440313F5001F07D914B032462346CC
:101A30003946BDE8F04DFFF7ADBCDFF890834FF0BD
:101A4000000A002FB8BF424523DAE14B9A42A8BFF3
:101A50004FF0020A1DDADC4B93421ADCDD4B03EB3C
:101A60002253142B08DDC3F1340C26FA0CF303FACD
:101A70000CFCB4450DD108E05EB9C3F1140C22FA98
:101A80000CF303FA0CFC944503D103F00103C3F1FA
:101A9000020A51EA00031BD1002C19DA002F18BFEB
:101AA000BAF1020F02D0BAF1010F07D00220FFF7FE
:101AB00099FC14B0BDE8F04DFFF764BC0220FFF7BD
:101AC00091FCFFF75FFC14B081F00041BDE8F08DA0
:101AD000330070D1424525D107F1804212F58012C2
:101AE00001BF00280020B84914B008BFBDE8F08D40
:101AF000B548884207DC002CA1BF1846214614B027
:101B0000BDE8F08D07E0002CBFBF184684F000410F
:101B100014B0BDE8F08DB0497944D1E9000114B0AA
:101B2000BDE8F08DDFF8A0C262452AD1002C24DA8E
:101B300039B1414517D1002804BF002002461CD10D
:101B400006E040B10220FFF74DFCFFF72BFC0A46F0
:101B5000394600F0D7BA9D4A394614B0002062F3E6
:101B60001E01BDE8F08D08DA14B03B46BDE8F04D2B
:101B7000024600206146FEF77BBB14B03946BDE843
:101B8000F08D414517DAB4F1804F0CD0A4F1005329
:101B9000B3F1FF530FD13B1E0DDB14B01946BDE866
:101BA000F04D00F0D9BB3B4614B00246BDE8F04D05
:101BB0001946FEF7EBBA050027F000433AD1E1B130
:101BC000414537D1002F06DD002CA1BF0020414642
:101BD00014B0BDE8F08D002F01DD002C1FDB002FBD
:101BE00016DA002C14DBBAF1010F4FF0000014BF1D
:101BF00076497A4914B0BDE8F08DBAF1020F18BFEA
:101C0000002F0CD0BAF1010F09D1002F07DA0BE039
:101C1000002FB8BF002C0DDABAF1010F04D000205C
:101C200014B00146BDE8F08D14B000204FF0004123
:101C3000BDE8F08D4FF0010808EBE77CCDF814C04B
:101C40005CEA0A0C0DD0DFF898C162457EDDDFF852
:101C500094C1654B624512DD8B420ADB002C18DB18
:101C600023E00120FFF7BEFB14B0BDE8F04DFFF705
:101C700093BB554A8A4202DC002C0ADC15E09942EB
:101C800002DA002C11DA04E04F4B994219DD002CE6
:101C90000BDD0220FFF7A6FBFFF784FB4B4A14B0D5
:101CA00061F31E021146BDE8F08D0220FFF79AFB9A
:101CB000FFF780FB444A14B061F31E021146BDE8F1
:101CC000F08D00223946FEF7BCFC07460D466FF04A
:101CD0000102FEF7BCFC4FF05532444BFEF7B4FC5A
:101CE0003A462B46FEF752FA0022414BFEF7ACFC77
:101CF00080468B463A462B4610461946FEF746FA72
:101D000042465B46FEF742FA88460E904FF0C042CC
:101D1000384B38462946FEF739FA83460091364A51
:101D2000344B41460E98FEF731FA80460191334A12
:101D3000334B38462946FEF729FA4246019BFEF707
:101D400080FC0D4602460B460C9000E011E0584620
:101D50000099FEF7D5FB002788465A463846009B77
:101D6000FEF76FFC2B460C9AFEF76EFC024600F065
:101D700079B90020B1F5801F07DA352228461946C7
:101D8000FEF765FC05466FF0340000EB2150A0F231
:101D9000FF300190C1F3130040F07F6141F04051EA
:101DA000029118498842D8BF4FF0000B35DD164923
:101DB0008142C8BF4FF0010B2FDC4FF0000B25E034
:101DC000FFFF1F00FFFF0F000000F03F0000F07F4B
:101DD0000000404301FCFFFF140900000000F0FF79
:101DE0000000E0410000F043FFFFEF3F5555D53FB5
:101DF0000000E03F4715F73FFE822B6544DF5DF8AA
:101E00000BAE543E8E9803007AB60B000198401C2E
:101E100001900298A0F580100290FF480299784442
:101E200000EBCB000991D0E9002328460B931292D6
:101E3000FEF707FC00910A9028460B9B129A09991D
:101E4000FEF75EFB02460B460020F449FEF710FA4F
:101E5000CDE90C010B46024600990A98FEF796F967
:101E60000690EF4888460027784402990068109051
:101E70004FF0005040EA610000EB8B4000F500217C
:101E800002910B9B129A1098FEF7DBFB2A46099BE6
:101E9000FEF7DAFB3A464346FEF778F908911290CE
:101EA00038464146029B109AFEF770F9009B0A9A49
:101EB000FEF7CAFB089B129AFEF7C3FBDDE90C2371
:101EC000FEF764F90B91069A1290434610461946A4
:101ED000FEF75CF905460246D2480B460A910621F8
:101EE0007844FFF7F9F90A9B2A46089102901046B8
:101EF0001946FEF74BF9089B029AFEF747F905468B
:101F00000991434638461946069AFEF7F9FA0B9BA3
:101F1000129AFEF73BF92A46099BFEF7F1FACDE942
:101F200008013A46434610461946FEF72FF90A9132
:101F30000022BD4B0090FEF7E3FADDE90823FEF72F
:101F4000DFFA0D463A46B84B3846FEF77AFB0A9B55
:101F5000009AFEF776FBDDE90823FEF775FBCDE975
:101F600008013A462B4610464146FEF70FF900910C
:101F70000A90DDE908014346069AFEF707F9069044
:101F800088462B463A460B991298FEF7FFF84346CF
:101F9000069AFEF7B5FA80460B4602460D91009967
:101FA0000A98FEF7ADFA00200F460546009B0A9AF4
:101FB000FEF747FB42460D9BFEF746FB88460E9018
:101FC0004FF06042994B28463946FEF7DFF8029100
:101FD0000090974A954B41460E98FEF7D7F88046F9
:101FE0000391944A944B28463946FEF7CFF842466F
:101FF000039BFEF785FA914A7A4402EBCB03D3E9BF
:102000000023FEF77DFA054607910198FEF79FF938
:102010000C9003912A46079B02990098FEF770FAEC
:10202000874A7A4402EBCB03D3E90023934601931A
:10203000FEF766FA039B0C9AFEF762FA00278846C1
:102040003846039B0C9AFEF7FCFA5A46019BFEF7B2
:10205000F8FA029B009AFEF7F4FA2A46079BFEF76D
:10206000F3FA02460020069005986C4DAAF1010390
:10207000184301D1734D069000200B460490304662
:102080002146FEF783F882468B46234630461946A2
:10209000049AFEF7D6FA3A464346FEF777F85246D8
:1020A0005B46FEF72DFA06468A463A4643462146E7
:1020B0000498FEF76BF804460F4632465346FEF787
:1020C0001FFA614A8B46914221DBABEB020353EAD4
:1020D000000210D122463B46FEF7B3FA8046039138
:1020E0005A4A5B4B30465146FEF70AFA4246039B7A
:1020F000FEF7C4FA27D20220FFF774F9FFF752F96E
:102100000A46294614B062F31E01BDE8F08D514B1A
:102110002BF000429A4216D34F4A0BEB020353EACC
:10212000000208D122463B46FEF78BFA3246534660
:10213000FEF7A4FA07D80220FFF754F9FFF73AF99F
:102140000A462946DEE72BF000404449444A01EBA9
:1021500020514FF00008824223DA481C4FF48011CE
:1021600021FA00F058443F4AC0F30A517A443E4BEA
:10217000A1F2FF31CB4020EA0303C0F3130040F487
:10218000801CC1F1140012682CFA00F8BBF1000F9A
:10219000B8BFC8F1000820463946FEF752FA044697
:1021A0000F4622463B4630465146FEF7A9F94FF00E
:1021B000000B5A462D4B58460391FDF7E7FF00915F
:1021C0000A902B4A2B4B58460399FDF7DFFF0491E9
:1021D000029022463B4658460399FEF732FA3246B1
:1021E0005346FEF731FA244A244BFDF7CFFF049BF8
:1021F000029AFEF785F907468A46009B0A9AFEF77F
:102200007FF904460E46009B0A9AFEF71AFA3A46F0
:102210005346FEF719FA33E0860500000000F03F50
:10222000C4050000F40400000000084009C7EE3FA8
:10223000FD033ADCF5015B14E02F3EBECC03000049
:10224000920300000000F0BF00009040FE822B656A
:102250004715973C00CC904000346F3F01FCFFFFD6
:102260000000E03FC0020000FFFF0F00432EE63FEA
:10227000396CA80C615C20BEEF39FAFE422EE63FB5
:102280000746224633460F9110461946FDF77EFF5A
:10229000834602462E488A460B4605217844FFF7BE
:1022A0001BF85A465346FDF771FF22463346FEF7A8
:1022B000CBF982468B463A46204631460F9BFDF7C6
:1022C00065FF3A460F9BFEF71BF90F460A90002266
:1022D0004FF0804350465946FEF7B3F90391009002
:1022E00052465B4620463146FDF750FF039B009A5D
:1022F000FDF7BEFF3B460A9AFEF7A3F92246334696
:10230000FEF79FF90022134BFEF79EF90E46044696
:1023100001EB08510815002810DC424620463146E2
:10232000FEF795F9FEF7C4FF042808BFFFF742F84F
:10233000424620463146FEF78AF9044606980B4687
:1023400014B022462946BDE8F04DFDF71FBF00003E
:10235000680100000000F03F2DE9F04106460F46FD
:10236000FEF7D7F904000D4618BF0120284320F0DE
:102370000040C0F17F6000F1E040C00F0ED0301C83
:1023800018BF0120384320F00040C0F17F6000F109
:10239000E040C00F04BF0120FFF724F82046294683
:1023A000BDE8F08100000000000000000000F03FE8
:1023B000000000000000F83F0000000000000000E6
:1023C0000000004003B8E23F0000000000000000F1
:1023D00006D0CF43EBFD4C3E033333333333E33F7F
:1023E000FFAB6FDBB66DDB3F4D268F515555D53FAB
:1023F00001411DA96074D13F65DBC9934A86CD3F79
:10240000EF4E454A287ECA3F3E5555555555C53F66
:1024100093BDBE166CC166BF2CDE25AF6A56113F58
:10242000F16BD2C541BDBBBED0A4BE726937663E5A
:1024300000000000000000005824000800000020F8
:1024400034000000C41300088C240008340000206D
:1024500014040000D413000800000000010203046B
:102460000102030406070809020406080000000030
:10247000000000000000000000000000000000005C
:0C24800000000000000000000000000050
:0400000508000131BD
:00000001FF
