:020000040800F2
:10000000D823002045010008950B0008FF0A0008CE
:10001000910B00088D090008CF13000800000000B4
:10002000000000000000000000000000450E000875
:100030009109000800000000910C0008590F000809
:100040005F0100085F0100085F0100085F01000810
:100050005F0100085F0100085F0100085F01000800
:100060005F0100085F0100085F0100085F010008F0
:100070005F0100085F0100085F0100085F010008E0
:100080005F0100085F0100085F0100085F010008D0
:100090005F0100085F0100085F0100085F010008C0
:1000A0005F0100085F0100085F0100085F010008B0
:1000B0005F0100085F0100085F0100085F010008A0
:1000C0005F0100085F0100085F0100085F01000890
:1000D0005F0100080D1100085F0100085F010008C2
:1000E0005F0100085F0100085F0100085F01000870
:1000F0005F0100085F0100085F0100085F01000860
:100100005F0100085F0100085F0100085F0100084F
:100110005F0100085F0100085F0100085F0100083F
:100120005F0100085F0100085F0100085F0100082F
:10013000DFF80CD000F0CAFA00480047E1180008C8
:10014000D82300200648804706480047FEE7FEE720
:10015000FEE7FEE7FEE7FEE7FEE7FEE7FEE7FEE777
:100160005D0F0008310100082DE9FE4F804681EA4D
:100170000300C00F0C46009021F0004123F0004521
:10018000B8EB0200A94105D24046214690461C46E4
:100190000B46024623F00040104347D0270DC7F31B
:1001A0000A00C3F30A510290401A019040286BDA0A
:1001B000C3F3130040F4801B0098924620B1002343
:1001C000D2EB030A63EB0B0B01985946C0F14002D6
:1001D000504600F0BDF906460D4650465946019A74
:1001E00000F0D5F910EB08006141002487EA1152B4
:1001F00084EAE7731A4340D0009A62B3019A012A55
:100200004FEA075215DC001B61EB02014FF0004280
:1002100002EA0752CDE90042001C41F58011324646
:100220002B4600F0D5F903B0BDE8F08F40462146DB
:10023000F9E7001B61EB0201001C41F58013001877
:100240005B412018A2F5001747EB030140EAD57087
:10025000B6196D4111E06D084FEA360645EAC075E2
:100260004FEA0752001B61EB0201001C41F58011AF
:1002700049084FEA30000019514132462B4603B07D
:10028000BDE8F04F00F095B900980122400000232E
:10029000D0EB020263EBE073009821464FEAE07472
:1002A000B8EB000061EB0401E9E783F000435BE792
:1002B00081F0004158E72DE9FE4F81EA030404F084
:1002C000004421F0004100944FF0000B23F0004364
:1002D00050EA01045ED052EA03045BD0C3F30A542F
:1002E000C1F30A552C44A4F2F3340194A0FB025448
:1002F000C1F3130141F48011C3F3130343F48013DA
:1003000001FB024400FB034E840A970A44EA81542D
:1003100047EA8357A4FB076802958D0A05FB07850A
:100320004FEA932C04FB0C542705029D4FEA065814
:1003300047EA1637B5EB08056EEB070C870E920EF1
:1003400047EA811742EA8312A7FB0201B6EB0B01D1
:1003500064EB00042B0D43EA0C335E1844EB1C5095
:10036000DA465146E7FB0201C5F313044FEA0B33AB
:1003700043EA14534FEA0432019C43EA0603A4F112
:100380000C040294009CCDE900B400F021F903B004
:10039000BDE8F08F00200146F9E72DE9F04D81EA34
:1003A000030404F0004B21F0004514464FF0000A0E
:1003B00023F0004150EA050220D054EA01021DD08A
:1003C000C5F30A570246C5F31303C1F31300C1F383
:1003D0000A5640F4801543F48013A7EB0608101B5F
:1003E000D64608F2FD3873EB050002D308F1010888
:1003F00001E092185B41B8F1000F03DA00200146DA
:10040000BDE8F08D00204FF48011064684460EE0D2
:10041000171B73EB050705D3121B63EB050306439C
:100420004CEA010C49084FEA300092185B4150EA4F
:100430000107EDD152EA030012D082EA040083EAF8
:100440000501084305D0101BAB4106D20122002351
:1004500006E000224FF0004302E06FF0010253106B
:100460001AEB06004CEB085110EB0A0041EB0B01B4
:10047000BDE8F04D00F09DB80EB5C10F80EAE07008
:100480000844CA07002140F233438DE80E000A46B3
:100490000B4600F09DF803B000BD0EB540F23341AD
:1004A00002910021CDE900110A460B4600F090F8B8
:1004B00003B000BD70B5C1F30A5201F0004500243D
:1004C000C1F3130140F2FF3341F480119A4201DA83
:1004D000002070BD40F233439A42A2F2334203DC63
:1004E000524200F044F800E090402C43F1D04042EA
:1004F00070BDC1F30A5210B5C1F3130140F2FF33CE
:1005000041F480119A4201DA002010BD40F23343D9
:100510009A42A2F2334203DC524200F028F810BDA6
:10052000904010BD30B50B4601460020202201242A
:1005300009E021FA02F59D4205D303FA02F5491BB1
:1005400004FA02F52844151EA2F10102F1DC30BDC7
:10055000202A04DB203A00FA02F100207047914083
:10056000C2F1200320FA03F3194390407047202A78
:1005700004DB203A21FA02F00021704721FA02F34D
:10058000D040C2F120029140084319467047202A0A
:1005900006DBCB17203A41FA02F043EAE07306E0AB
:1005A00041FA02F3D040C2F12002914008431946BB
:1005B000704710B5141E73F1000408DA401C41F1B5
:1005C000000192185B411A4301D120F0010010BDD7
:1005D0002DE9F04D92469B4611B1B1FA81F202E04D
:1005E000B0FA80F220329046FFF7B2FF04460F4681
:1005F00040EA0A0041EA0B0153465A46084313D029
:10060000114653EA010019D0C8F140025046FFF7E5
:10061000AEFF05460E46504659464246FFF798FF44
:10062000084305D0012004E020463946BDE8F08D9E
:100630000020054346EAE0762C4337430A986305D9
:10064000E40AA0EB08000022FD0A44EA47540A30FD
:1006500002D500200146E9E7010510196941DDE9ED
:10066000084500196941BDE8F04DA2E770B521F0D9
:10067000004303430CD0C1F30A550024D5EB040515
:1006800064EB0403D617AD1AB34102DB0020014628
:1006900070BD201841EB025170BD000030B5041E42
:1006A00071F1000404DB4FF00044404264EB0101AF
:1006B000141E73F1000405DB1C464FF00043524248
:1006C00063EB0403994208BF904230BD064C074DCE
:1006D00006E0E06840F0010394E807009847103412
:1006E000AC42F6D3FFF728FD502400087024000820
:1006F0002DE9F04D00231A461B1A8A4103DB002026
:100700000146BDE8F08DC1F30A52C1F3130141F473
:1007100080154FF0000BD10702D100186D41521E19
:100720000027044640F2FF11384601EB620A3E46BC
:100730008046024600204FF48011FFF718FFC219CF
:100740007141BB1846EB0100B4EB030C75EB000CD8
:1007500004D3E41A65EB000517460E46241908F188
:1007600001006D4180463428E3DDF91946EB0600AF
:10077000091BA84103D24FF0FF32134601E00022CB
:1007800013461BEB070046EB0A51BDE8F04DFFF79F
:1007900010BF00002DE9FC470446D4E9000140EAFF
:1007A00001096068FFF779FE07463A460B460020CC
:1007B0004FF0804101F002F90546FFF79AFE1D490E
:1007C0000860A06808B149F40009E06808B149F47C
:1007D0008019206908B149F08009606908B149F0C1
:1007E0004009A06908B149F01009E06908B149F071
:1007F00008094FEA19408DF80600012001F040F881
:100800004FEA19208DF80500012001F039F809F0B0
:10081000FF008DF80400012001F032F81020009054
:100820006946012000F0F6FD01A9032000F0F2FD69
:10083000BDE8FC8720000020F8B504460D461646AA
:1008400000960CB1802000900DB1402000906946C8
:10085000012000F0DFFDF8BD00B591B04FF48070CD
:100860000190072002900020039004900590012041
:10087000069007900890C005099000200A904FF458
:1008800000200B9000200C900D9001200E900F90F6
:100890008020109001A8FFF77DFF00F09AFD09A8C5
:1008A00000F015F800F095FD4FF42000099080202D
:1008B000109009A800F00BF800F08BFD00200990C3
:1008C0005020109009A800F002F811B000BD7CB5CE
:1008D00005460024A868044328680443E8690443E3
:1008E000686808B144F48014E86808B144F400442E
:1008F000286908B144F40054686908B144F40064FC
:10090000A86908B144F48064200C8DF80600042026
:1009100000F0B6FF200A8DF80500042000F0B0FFBB
:10092000E0B28DF80400042000F0AAFF0820009037
:100930006946012000F06EFD01A9032000F06AFD68
:100940007CBD38B500F045FD58208DF800006946A3
:10095000012000F05FFD00F01DF80446204638BD80
:1009600070B50446FFF7EDFF05465DB10648007817
:1009700008B9256004E004480078012800D16560CA
:10098000012070BD0020FCE71C00002000BFFEE736
:100990007047000038B500246946032000F004FACF
:1009A000002201211046FFF747FF142000F068FFE6
:1009B0000A49012000F0F8F90848007800F0070023
:1009C000074908709DF8020001049DF8010001EB41
:1009D00000209DF800104418204638BD1D0000205E
:1009E0001C0000202DE9F0410246002500260020D1
:1009F00000230024002791F803C00CF00F0591F8A4
:100A000003C00CF0100CBCF1000F03D091F802C031
:100A10004CEA050591F800C0BCF1000F31D0146814
:100A200000202BE04FF0010C0CFA00F3B1F800C0ED
:100A30000CEA03069E4220D183004FF00F0C0CFA03
:100A400003F7BC4305FA03FC4CEA040491F803C025
:100A5000BCF1280F06D14FF0010C0CFA00FCC2F8D3
:100A600014C00AE091F803C0BCF1480F05D14FF063
:100A7000010C0CFA00FCC2F810C0401C0828D1D3AD
:100A80001460B1F800C0BCF1FF0F34DD54680020E1
:100A90002EE000F1080C4FF0010808FA0CF3B1F851
:100AA00000C00CEA03069E4221D183004FF00F0CD8
:100AB0000CFA03F7BC4305FA03FC4CEA040491F872
:100AC00003C0BCF1280F05D100F1080C08FA0CF89E
:100AD000C2F8148091F803C0BCF1480F07D100F1AF
:100AE000080C4FF0010808FA0CF8C2F81080401CFE
:100AF0000828CED35460BDE8F0810161704700BF83
:100B0000FEE700002DE9FE4F04468946206802906A
:100B100000201A4908602BE00298FFF7ADFC074659
:100B2000174A184BFFF7C7FB05460E4613490968DD
:100B300054F82100FFF7A0FC0746134A134BFFF7B8
:100B4000BAFB2A463346CDE90001FFF70DFB82468A
:100B5000FFF7B0FC0949096849F821000748006817
:100B600059F82000029005480068401C03490860BD
:100B7000024800686428CFDBBDE8FE8F000000203B
:100B80002B8716D9CEF7EF3FFCA9F1D24D62503F2B
:100B900000BFFEE7704708B54FF4A06000F048F8CA
:100BA00012208DF8000001208DF8010000208DF842
:100BB000020001208DF80300684600F001F808BD2E
:100BC00070B5002100230F22C47804B3154C2468AB
:100BD00004F4E064C4F5E064210AC1F10403CA40EE
:100BE000447804FA03F184781440214309010E4C3F
:100BF0000678A155047804F01F050124AC4005785F
:100C00006D11AD0005F1E025C5F8004109E004785B
:100C100004F01F050124AC40044D0678761145F818
:100C2000264070BD0CED00E000E400E080E100E053
:100C300002490143024A1160704700000000FA05B2
:100C40000CED00E070B501460020002200240B6886
:100C500000250E4E356013E00C4D2D686D1C51F8CB
:100C600025209A4200DD01249A4203DA012C01D1A9
:100C7000401C00241346054D2D686D1C034E356045
:100C8000024D2D68642DE7DB70BD000000000020E0
:100C90007047000029B1064AD2690243044BDA6169
:100CA00004E0034AD2698243014BDA6170470000D5
:100CB0000010024029B1064A92690243044B9A612E
:100CC00004E0034A92698243014B9A617047000035
:100CD0000010024030B500210022002400232D4DD9
:100CE0006D6805F00C0121B1042905D0082923D134
:100CF00005E0294D056022E0274D05601FE0254DE8
:100D00006D6805F47012234D6D6805F4803402257A
:100D100005EB92421CB9214D554305600BE01D4D7A
:100D20006D6805F400351DB11C4D5543056002E0AA
:100D3000194D5543056002E0174D056000BF00BF27
:100D4000144D6D6805F0F0010909154D6B5C0568DF
:100D5000DD4045600F4D6D6805F4E061090A104DF6
:100D60006B5C4568DD4085600A4D6D6805F4605137
:100D7000C90A0B4D6B5C4568DD40C560054D6D686B
:100D800005F44041890B074D6B5CC568B5FBF3F575
:100D9000056130BD0010024000127A0000093D00DC
:100DA00004000020140000202DE9F04106460F4603
:100DB0004FF000080024002501202049086002208F
:100DC00000F05EFD01201E49C1F8B001022000F0D4
:100DD00057FD00201949091D0860022000F050FD50
:100DE000344622E04FF0000816E000201349086066
:100DF0006806050E022000F043FD1148D0F82401DA
:100E00002843C5B201200D490860022000F038FDDA
:100E100008F1010000F0FF08B8F1080FE5DB381910
:100E200000F8015C0025601EC4B2002CDADC012051
:100E30000249091D0860BDE8F0810000AC012242B2
:100E400000002242704710B500F002F810BD00000B
:100E50000CB50020019000903348006840F48030C9
:100E60003149086000BF3048006800F4003000904D
:100E70000198401C0190009818B90198B0F5A06F36
:100E8000F1D12948006800F4003010B10120009031
:100E900001E0002000900098012843D12348006819
:100EA00040F01000214908600846006820F0030067
:100EB00008600846006840F0020008601A48406870
:100EC000194948600846406848600846406840F450
:100ED000806048600846406820F47C1048600846FE
:100EE000406840F4E81048600846006840F08070B0
:100EF000086000BF0C48006800F000700028F9D0BE
:100F00000948406820F003000749486008464068E7
:100F100040F00200486000BF0348406800F00C0049
:100F20000828F9D10CBD000000100240002002404A
:100F3000042808D14FF0E021096941F004014FF085
:100F4000E022116107E04FF0E021096921F004017E
:100F50004FF0E022116170477047000010B5134850
:100F6000006840F0010011490860084640681049D7
:100F700008400E494860084600680E4908400B4981
:100F800008600846006820F4802008600846406831
:100F900020F4FE0048604FF41F008860FFF753FF05
:100FA0004FF000600449086010BD000000100240CE
:100FB0000000FFF8FFFFF6FE08ED00E00EB501218E
:100FC0000846FFF767FE4FF47A70ADF8040047203B
:100FD000ADF800000020ADF80600ADF8020069464B
:100FE0004FF0804000F040F80121880700F023F81E
:100FF00001221146900700F02DF80121880700F02A
:101000001DF800210120FFF745FE0EBD08B54FF485
:10101000E060FFF70DFE1C208DF8000000208DF829
:10102000010003208DF8020001208DF803006846BE
:10103000FFF7C6FD08BDCA430282704721B102888E
:1010400042F00102028004E002884FF6FE731A406B
:10105000028070471AB183890B43838102E0838940
:101060008B43838170470000002202881D4B984209
:101070000ED01D4B98420BD0B0F1804F08D01B4BC7
:10108000984205D01A4B984202D01A4B984204D18C
:101090004FF68F731A404B881A43174B984207D06C
:1010A000164B984204D04FF6FF431A40CB881A43A0
:1010B00002808B8883850B8803850A4B98420BD06E
:1010C000094B984208D00E4B984205D00D4B9842E0
:1010D00002D00D4B984201D10B7A03860123838203
:1010E00070470000002C0140003401400004004023
:1010F00000080040000C00400010004000140040B8
:1011000000400140004401400048014010B540F259
:1011100025510C4800F096F870B10A4800F04EF9DD
:10112000C4B22146074800F04EF900BF40210548EF
:1011300000F07BF80128F9D14021024800F060F866
:1011400010BD00000038014010B586B004460121F2
:101150000420FFF7AFFD01218803FFF7ABFD01215C
:101160000846FFF7A7FD4FF40070ADF81400032008
:101170008DF8160018208DF8170005A91E48FFF7F6
:1011800031FC4FF48060ADF8140004208DF8170096
:1011900005A91948FFF726FC01940020ADF80800C6
:1011A000ADF80A00ADF80C00ADF810000C20ADF859
:1011B0000E0001A9114800F095F801210F4800F038
:1011C00028F840210D4800F01BF8012240F225517B
:1011D0000A4800F061F825208DF8000003208DF802
:1011E00001008DF8020001208DF803006846FFF72A
:1011F000E7FC06B010BD00000008014000380140C7
:1012000001F40072B2F5007F00D100BFCA43028032
:10121000704721B1828942F40052828104E08289C0
:101220004DF6FF731A408281704702460020B1F5E7
:10123000007F00D100BF13880B400BB1012000E0FC
:101240000020704770B502460024002300250020CE
:1012500040F66A16B14200D100BFC1F3421501F059
:101260001F03012606FA03F3012D02D196893340AC
:1012700006E0022D02D1168A334001E0968A3340FF
:101280000C12012606FA04F41688344013B10CB18E
:10129000012000E0002070BDF0B5034600240026C8
:1012A0000025002040F66A17B94200D100BF184659
:1012B000C1F3421401F01F06012707FA06F5012CBD
:1012C00001D10C3004E0022C01D1103000E01430C8
:1012D0001AB107682F43076002E00768AF43076051
:1012E000F0BD00002DE9F04786B005460E4600240B
:1012F000A24600BFA1460027B08900B100BF2F461B
:101300002C8A4CF6FF700440F08804432C82AC8990
:101310004EF6F3100440B0883189084371890843C0
:101320000443AC81AC8A4FF6FF400440B0890443CB
:10133000AC8201A8FFF7CEFC1F48874202D1DDF83E
:1013400010A001E0DDF80CA0A88900F4004040B135
:101350000AEBCA0000EB0A1031684900B0FBF1F853
:1013600007E00AEBCA0000EB0A1031688900B0FB05
:10137000F1F86420B8FBF0F004012009642101FBBE
:101380001089A88900F4004040B1322000EBC90068
:10139000B0FBF1F000F00700044308E0322000EB5E
:1013A00009106421B0FBF1F000F00F0004432C8120
:1013B00006B0BDE8F087000000380140014688888B
:1013C000C0F308007047C1F308028280704700BF75
:1013D000FEE708B51CE0002201211046FFF72CFAB9
:1013E00069460120FFF7E0FC9DF8000000F0400096
:1013F00020B10A2000F026FA002008BD9DF8000068
:1014000000F0800008B90120F7E7032000F01AFA85
:10141000E1E700002DE9F04105460E4600270024D3
:10142000A046012022490860022000F029FA01208C
:101430002049C1F8B001022000F022FA00201C4926
:10144000091D0860022000F01BFA2C4628E0301924
:1014500010F8017C4FF000081DE0002014490860DE
:1014600007F08000802803D10120091F086003E0F5
:1014700000200F49091F0860022000F001FA012036
:101480000B490860022000F0FBF97806070E08F10E
:10149000010000F0FF08B8F1080FDEDB601EC4B2E7
:1014A000002CD4DC01200249091D0860BDE8F08150
:1014B000AC012242000022420FB4054B10B503A933
:1014C000044A029800F0A8F810BC5DF814FB000074
:1014D000BD1800082C000020490050EAC12018BFA8
:1014E00004204A0D18BF40F0010040F2FF72B2EB39
:1014F000515F08BF40F00200012808BF0520704777
:101500002DE9F0414F1E00EBC7010446D1E900016F
:1015100015461E4637F006020DD02A463346FEF722
:10152000CAFE7F1E04EBC703D3E90023FEF71CFEAF
:1015300037F00602F1D1022F25D0042F13D0062F49
:1015400018BFBDE8F0812A463346FEF7B4FED4E961
:101550000A23FEF709FE2A463346FEF7ACFED4E91D
:101560000823FEF701FE2A463346FEF7A4FED4E91F
:101570000623FEF7F9FD2A463346FEF79CFED4E922
:101580000423FEF7F1FD2A463346FEF794FED4E924
:101590000223FEF7E9FD2A463346FEF78CFED4E926
:1015A0000023BDE8F041FEF7DFBD00000022134636
:1015B00010460149FEF7F1BE0000F03FFEF7D4BD32
:1015C0000022134610461146FEF7E7BE40F20132F4
:1015D00000204FF0E041FFF749B80000024A002028
:1015E0001107FFF743B8000001FDFFFF02E008C844
:1015F000121F08C1002AFAD170477047002001E08D
:1016000001C1121F002AFBD1704700000149086088
:1016100070470000300000202DE9FF4F89B09B4645
:101620000446002506E025280BD05A460B99904722
:10163000641C6D1C20780028F5D10DB02846BDE84B
:10164000F08F0027B8460122474900E0074314F80D
:10165000013F203B02FA03F00842F7D120782E2800
:1016600019D114F8010F47F004072A280ED06FF0A3
:101670002F022078A0F1300109290CD808EB88014D
:1016800002EB410100EB0108641CF2E70A98641CBC
:1016900050F8048B0A9020780028CED0642808D017
:1016A000692806D075281ED05A460B9990476D1CA4
:1016B00058E00A994FF00A0901C90A91002802DA94
:1016C00040422D2102E0390504D52B218DF8201050
:1016D000012103E0F90704D02021F7E78A4608AE8C
:1016E0000DE00021FAE70A994FF00A0901C90A91B1
:1016F000F7E74946FEF716FF303106F8011D0028CE
:10170000F7D1ADEB060000F12009780701D44FF0C6
:101710000108C84502DDA8EB090000E00020804672
:10172000002706E008A85A46C05D0B9990476D1C3B
:101730007F1C5745F6DB04E030205A460B99904752
:101740006D1CB8F10001A8F10108F5DC05E016F800
:10175000010B5A460B9990476D1CB9F10001A9F194
:101760000109F4DC641C65E7092801001CB50121AE
:101770001020FFF79FFA4FF4E050ADF80000102062
:101780008DF8030003208DF8020069461D48FFF71D
:1017900029F94FF4E0511B48FFF7AFF948208DF8C5
:1017A00003004FF40070ADF8000003208DF8020034
:1017B00069461448FFF716F9FF208DF8040001A9C7
:1017C0000120FFF727FEFF208DF8040001A901206A
:1017D000FFF720FEFF208DF8040001A90120FFF78C
:1017E00019FEFF208DF8040001A90120FFF712FE69
:1017F000FF208DF8040001A90120FFF70BFEFFF781
:101800002BF81CBD0010014010B504466FF0040019
:10181000FFF78EFBE11704EB5171C1F3C701074AD3
:1018200011701046007800EB4001C1EBC0104FF67C
:10183000FF7101EAC0000249088010BD18000020B5
:101840001A00002001460D4A12884A434FF0E02357
:101850005A6100229A6101221A6100BF4FF0E02212
:10186000106900F001021AB100F48032002AF5D0AC
:1018700000224FF0E0231A619A6170471A0000209D
:1018800001460D4A12784A434FF0E0235A61002284
:101890009A6101221A6100BF4FF0E022106900F046
:1018A00001021AB100F48032002AF5D000224FF074
:1018B000E0231A619A6170471800002070B5044651
:1018C0000D46E1B20548FFF77EFD00BF80210348C9
:1018D000FFF7ABFC0028F9D0204670BD003801406E
:1018E00000BF00BF00BFFFF739FB4820FFF78CFFA8
:1018F0004FF4A060FFF79CF9FFF74DF94FF4E1308A
:10190000FFF722FCFFF732FF1420FFF7B9FFFFF7C4
:101910002DFF1420FFF7B4FFFFF750FBFFF776FB16
:101920003AE000201D49086026E01D48FFF718F83E
:101930001B490868FEF7A0FD80460022194BFEF700
:101940002CFD06460022184BFEF727FD0446002218
:10195000164BFEF7B0FC8246FEF7ACFD104908605E
:101960000846006812490D4A126841F822000B48E7
:101970000068401C09490860084800686428D4DBF6
:101980000C490B48FFF7BEF80A48FFF75BF904461D
:10199000214609A0FFF790FDC3E7000000000020EA
:1019A000340000200000F03F0000704160E3464139
:1019B000440000200C10002025640A002DE9F04DA1
:1019C00016460F4694B01C4621F0004123F0004219
:1019D000002814BF4FF0010C4FF0000C0CEB470C2B
:1019E000FE4B0CEB03054FEA630C65452BD335002A
:1019F00018BF012505EB44051D44F94B9D4222D338
:101A0000F84B52EA060C02D09F4205D148B914B0F7
:101A100000201946BDE8F08D002808BF4FF0000CEB
:101A200001D04FF0010C0CEB470313F5001F0AD84F
:101A3000002E14BF4FF0010C4FF0000C0CEB4403D0
:101A400013F5001F07D914B0324623463946BDE8C6
:101A5000F04DFFF7B3BDDFF890834FF0000A002F81
:101A6000B8BF424523DAE14B9A42A8BF4FF0020AC1
:101A70001DDADC4B93421ADCDD4B03EB2253142BB3
:101A800008DDC3F1340C26FA0CF303FA0CFCB44560
:101A90000DD108E05EB9C3F1140C22FA0CF303FA7D
:101AA0000CFC944503D103F00103C3F1020A51EA8F
:101AB00000031BD1002C19DA002F18BFBAF1020F56
:101AC00002D0BAF1010F07D00220FFF79FFD14B03A
:101AD000BDE8F04DFFF76ABD0220FFF797FDFFF765
:101AE00065FD14B081F00041BDE8F08D330070D188
:101AF000424525D107F1804212F5801201BF00282E
:101B00000020B84914B008BFBDE8F08DB548884240
:101B100007DC002CA1BF1846214614B0BDE8F08DAB
:101B200007E0002CBFBF184684F0004114B0BDE8A8
:101B3000F08DB0497944D1E9000114B0BDE8F08DD1
:101B4000DFF8A0C262452AD1002C24DA39B1414520
:101B500017D1002804BF002002461CD106E040B186
:101B60000220FFF753FDFFF731FD0A46394600F02A
:101B7000D7BA9D4A394614B0002062F31E01BDE871
:101B8000F08D08DA14B03B46BDE8F04D0246002067
:101B90006146FEF702BC14B03946BDE8F08D414500
:101BA00017DAB4F1804F0CD0A4F10053B3F1FF5316
:101BB0000FD13B1E0DDB14B01946BDE8F04D00F00F
:101BC000D9BB3B4614B00246BDE8F04D1946FEF7BE
:101BD00072BB050027F000433AD1E1B1414537D14E
:101BE000002F06DD002CA1BF0020414614B0BDE847
:101BF000F08D002F01DD002C1FDB002F16DA002CEA
:101C000014DBBAF1010F4FF0000014BF76497A4996
:101C100014B0BDE8F08DBAF1020F18BF002F0CD040
:101C2000BAF1010F09D1002F07DA0BE0002FB8BF7E
:101C3000002C0DDABAF1010F04D0002014B00146D7
:101C4000BDE8F08D14B000204FF00041BDE8F08DEC
:101C50004FF0010808EBE77CCDF814C05CEA0A0CF1
:101C60000DD0DFF898C162457EDDDFF894C1654B89
:101C7000624512DD8B420ADB002C18DB23E00120D9
:101C8000FFF7C4FC14B0BDE8F04DFFF799BC554A0E
:101C90008A4202DC002C0ADC15E0994202DA002CB0
:101CA00011DA04E04F4B994219DD002C0BDD0220C4
:101CB000FFF7ACFCFFF78AFC4B4A14B061F31E023D
:101CC0001146BDE8F08D0220FFF7A0FCFFF786FC6F
:101CD000444A14B061F31E021146BDE8F08D0022A3
:101CE0003946FEF7E2FA07460D466FF00102FEF7AD
:101CF000BDFC4FF05532444BFEF7DAFA3A462B461C
:101D0000FEF7D9FA0022414BFEF7D2FA80468B4605
:101D10003A462B4610461946FEF7CDFA42465B4638
:101D2000FEF7C9FA88460E904FF0C042384B38464D
:101D30002946FEF7C0FA83460091364A344B4146A5
:101D40000E98FEF7B8FA80460191334A334B384675
:101D50002946FEF7B0FA4246019BFEF7A6FA0D4669
:101D600002460B460C9000E011E058460099FEF741
:101D7000FBF9002788465A463846009BFEF795FA3D
:101D80002B460C9AFEF794FA024600F079B900202F
:101D9000B1F5801F07DA352228461946FEF766FCA2
:101DA00005466FF0340000EB2150A0F2FF300190A7
:101DB000C1F3130040F07F6141F040510291184996
:101DC0008842D8BF4FF0000B35DD16498142C8BFAD
:101DD0004FF0010B2FDC4FF0000B25E0FFFF1F0041
:101DE000FFFF0F000000F03F0000F07F00004043C5
:101DF00001FCFFFF100900000000F0FF0000E041BF
:101E00000000F043FFFFEF3F5555D53F0000E03F96
:101E10004715F73FFE822B6544DF5DF80BAE543E5D
:101E20008E9803007AB60B000198401C019002982E
:101E3000A0F580100290FF480299784400EBCB0097
:101E40000991D0E9002328460B931292FEF72DFA50
:101E500000910A9028460B9B129A0999FEF784F983
:101E600002460B460020F449FEF797FACDE90C0133
:101E70000B46024600990A98FEF71DFA0690EF48B5
:101E80008846002778440299006810904FF000506F
:101E900040EA610000EB8B4000F5002102910B9BB2
:101EA000129A1098FEF701FA2A46099BFEF700FAEB
:101EB0003A464346FEF7FFF90891129038464146EC
:101EC000029B109AFEF7F7F9009B0A9AFEF7F0F9C9
:101ED000089B129AFEF7E9F9DDE90C23FEF7EBF90E
:101EE0000B91069A1290434610461946FEF7E3F905
:101EF00005460246D2480B460A9106217844FFF770
:101F0000FFFA0A9B2A460891029010461946FEF7EE
:101F1000D2F9089B029AFEF7CEF90546099143468D
:101F200038461946069AFEF71FF90B9B129AFEF7E0
:101F3000C2F92A46099BFEF717F9CDE908013A468E
:101F4000434610461946FEF7B6F90A910022BD4BEA
:101F50000090FEF709F9DDE90823FEF705F90D46C3
:101F60003A46B84B3846FEF7A0F90A9B009AFEF7AE
:101F70009CF9DDE90823FEF79BF9CDE908013A4613
:101F80002B4610464146FEF796F900910A90DDE98E
:101F900008014346069AFEF78EF9069088462B46BE
:101FA0003A460B991298FEF786F94346069AFEF7D1
:101FB000DBF880460B4602460D9100990A98FEF721
:101FC000D3F800200F460546009B0A9AFEF76DF9EC
:101FD00042460D9BFEF76CF988460E904FF060422A
:101FE000994B28463946FEF766F902910090974AC8
:101FF000954B41460E98FEF75EF980460391944A50
:10200000944B28463946FEF756F94246039BFEF7A5
:10201000ABF8914A7A4402EBCB03D3E90023FEF7F5
:10202000A3F8054607910198FEF726FA0C90039154
:102030002A46079B02990098FEF796F8874A7A4449
:1020400002EBCB03D3E9002393460193FEF78CF810
:10205000039B0C9AFEF788F8002788463846039BB6
:102060000C9AFEF722F95A46019BFEF71EF9029BD5
:10207000009AFEF71AF92A46079BFEF719F902465D
:102080000020069005986C4DAAF10103184301D178
:10209000734D069000200B46049030462146FEF713
:1020A0000AF982468B46234630461946049AFEF7C3
:1020B000FCF83A464346FEF7FEF852465B46FEF70A
:1020C00053F806468A463A46434621460498FEF7A8
:1020D000F2F804460F4632465346FEF745F8614A89
:1020E0008B46914221DBABEB020353EA000210D195
:1020F00022463B46FEF7D9F8804603915A4A5B4B8D
:1021000030465146FEF730F84246039BFEF7C6FACA
:1021100027D20220FFF77AFAFFF758FA0A46294633
:1021200014B062F31E01BDE8F08D514B2BF000425C
:102130009A4216D34F4A0BEB020353EA000208D12E
:1021400022463B46FEF7B1F832465346FEF7A6FA62
:1021500007D80220FFF75AFAFFF740FA0A46294645
:10216000DEE72BF000404449444A01EB20514FF098
:102170000008824223DA481C4FF4801121FA00F053
:1021800058443F4AC0F30A517A443E4BA1F2FF3112
:10219000CB4020EA0303C0F3130040F4801CC1F1DC
:1021A000140012682CFA00F8BBF1000FB8BFC8F198
:1021B000000820463946FEF778F804460F462246C6
:1021C0003B4630465146FDF7CFFF4FF0000B5A46D5
:1021D0002D4B58460391FEF76EF800910A902B4A5A
:1021E0002B4B58460399FEF766F80491029022465D
:1021F0003B4658460399FEF758F832465346FEF7D9
:1022000057F8244A244BFEF756F8049B029AFDF730
:10221000ABFF07468A46009B0A9AFDF7A5FF0446D6
:102220000E46009B0A9AFEF740F83A465346FEF7E0
:102230003FF833E0820500000000F03FC0050000D9
:10224000F00400000000084009C7EE3FFD033ADC3F
:10225000F5015B14E02F3EBEC80300008E030000B2
:102260000000F0BF00009040FE822B654715973CB0
:1022700000CC904000346F3F01FCFFFF0000E03FC6
:10228000BC020000FFFF0F00432EE63F396CA80C94
:10229000615C20BEEF39FAFE422EE63F0746224639
:1022A00033460F9110461946FEF705F8834602465D
:1022B0002E488A460B4605217844FFF721F95A46F5
:1022C0005346FDF7F8FF22463346FDF7F1FF8246FD
:1022D0008B463A46204631460F9BFDF7ECFF3A46C7
:1022E0000F9BFDF741FF0F460A9000224FF08043FD
:1022F00050465946FDF7D9FF0391009052465B4680
:1023000020463146FDF7D7FF039B009AFEF745F8BC
:102310003B460A9AFDF7C9FF22463346FDF7C5FF43
:102320000022134BFDF7C4FF0E46044601EB085193
:102330000815002810DC424620463146FEF796F983
:10234000FFF7CAF8042808BFFFF748F942462046BD
:102350003146FEF78BF9044606980B4614B0224628
:102360002946BDE8F04DFDF7A6BF0000640100005E
:102370000000F03F2DE9F04106460F46FEF7B8F9A0
:1023800004000D4618BF0120284320F00040C0F192
:102390007F6000F1E040C00F0ED0301C18BF01205C
:1023A000384320F00040C0F17F6000F1E040C00FF2
:1023B00004BF0120FFF72AF920462946BDE8F08135
:1023C000000000000000F03F000000000000F83FA7
:1023D00000000000000000000000004003B8E23FE1
:1023E000000000000000000006D0CF43EBFD4C3E93
:1023F000033333333333E33FFFAB6FDBB66DDB3F88
:102400004D268F515555D53F01411DA96074D13FCF
:1024100065DBC9934A86CD3FEF4E454A287ECA3FC9
:102420003E5555555555C53F93BDBE166CC166BF4B
:102430002CDE25AF6A56113FF16BD2C541BDBBBE44
:10244000D0A4BE726937663E0000000000000000A4
:10245000702400080000002034000000EC15000883
:10246000A424000834000020A4230000FC15000868
:102470000000000000000000010203040102030448
:10248000060708090204060800000000000000001A
:10249000000000000000000000000000000000003C
:0424A0000000000038
:0400000508000131BD
:00000001FF
