:020000040800F2
:1000000050080020450100081B13000813130008C6
:1000100017130008170C0008191E00080000000044
:10002000000000000000000000000000B9150008FA
:10003000BD0D000800000000CD130008CD1600081B
:100040005F0100085F0100085F0100085F01000810
:100050005F0100085F0100085F0100085F01000800
:100060005F0100085F0100085F0100085F010008F0
:100070005F0100085F0100085F0100085F010008E0
:100080005F0100085F0100085F0100085F010008D0
:100090005F0100085F0100085F0100085F010008C0
:1000A0005F0100085F0100085F0100085F010008B0
:1000B000811700085F0100085F0100085F01000868
:1000C0005F0100085F0100085F0100085F01000890
:1000D0005F010008511A00085F0100085F01000875
:1000E0005F0100085F0100085F0100085F01000870
:1000F0005F0100085F0100085F0100085F01000860
:100100005F0100085F0100085F0100085F0100084F
:100110005F010008CD1800085F0100085F010008BA
:100120005F0100085F0100085F0100085F0100082F
:10013000DFF80CD000F0E0FA004800473D26000848
:10014000500800200648804706480047FEE7FEE7C3
:10015000FEE7FEE7FEE7FEE7FEE7FEE7FEE7FEE777
:10016000D11600083101000840EA01039B0703D0C3
:1001700009E008C9121F08C0042AFAD203E011F8E6
:10018000013B00F8013B521EF9D27047D2B201E0A8
:1001900000F8012B491EFBD270470022F6E710B58C
:1001A00013460A4604461946FFF7F0FF204610BDE5
:1001B00030B505462A460B4612F8010B13F8014BE1
:1001C00008B1A042F8D01CB1002802D06D1CF1E7A4
:1001D000284630BD2DE9FE4F804681EA0300C00F5E
:1001E0000C46009021F0004123F00045B8EB0200DE
:1001F000A94105D24046214690461C460B46024680
:1002000023F00040104347D0270DC7F30A00C3F383
:100210000A510290401A019040286BDAC3F3130090
:1002200040F4801B0098924620B10023D2EB030AD1
:1002300063EB0B0B01985946C0F14002504600F0A9
:100240002FF906460D4650465946019A00F047F9E7
:1002500010EB08006141002487EA115284EAE77339
:100260001A4340D0009A62B3019A012A4FEA07521A
:1002700015DC001B61EB02014FF0004202EA07525D
:10028000CDE90042001C41F5801132462B4600F0BA
:1002900047F903B0BDE8F08F40462146F9E7001B5F
:1002A00061EB0201001C41F5801300185B4120182E
:1002B000A2F5001747EB030140EAD570B6196D416E
:1002C00011E06D084FEA360645EAC0754FEA07525D
:1002D000001B61EB0201001C41F5801149084FEA47
:1002E00030000019514132462B4603B0BDE8F04FB3
:1002F00000F007B90098012240000023D0EB020271
:1003000063EBE073009821464FEAE074B8EB00001D
:1003100061EB0401E9E783F000435BE781F0004112
:1003200058E72DE9FE4F81EA030404F0004421F070
:10033000004100944FF0000B23F0004350EA010409
:100340005ED052EA03045BD0C3F30A54C1F30A55EA
:100350002C44A4F2F3340194A0FB0254C1F3130122
:1003600041F48011C3F3130343F4801301FB0244EF
:1003700000FB034E840A970A44EA815447EA8357F4
:10038000A4FB076802958D0A05FB07854FEA932CAD
:1003900004FB0C542705029D4FEA065847EA16371E
:1003A000B5EB08056EEB070C870E920E47EA811736
:1003B00042EA8312A7FB0201B6EB0B0164EB0004D7
:1003C0002B0D43EA0C335E1844EB1C50DA465146C1
:1003D000E7FB0201C5F313044FEA0B3343EA14535E
:1003E0004FEA0432019C43EA0603A4F10C04029490
:1003F000009CCDE900B400F093F803B0BDE8F08FA5
:1004000000200146F9E70EB5C10F80EAE07008440C
:10041000CA07002140F233438DE80E000A460B461E
:1004200000F07EF803B000BD0EB540F233410291FA
:100430000021CDE900110A460B4600F071F803B027
:1004400000BDC1F30A5210B5C1F3130140F2FF33EE
:1004500041F480119A4201DA002010BD40F233438A
:100460009A42A2F2334203DC524200F028F810BD57
:10047000904010BD30B50B460146002020220124DB
:1004800009E021FA02F59D4205D303FA02F5491B62
:1004900004FA02F52844151EA2F10102F1DC30BD78
:1004A000202A04DB203A00FA02F100207047914034
:1004B000C2F1200320FA03F3194390407047202A29
:1004C00004DB203A21FA02F00021704721FA02F3FE
:1004D000D040C2F120029140084319467047202ABB
:1004E00006DBCB17203A41FA02F043EAE07306E05C
:1004F00041FA02F3D040C2F120029140084319466C
:10050000704710B5141E73F1000408DA401C41F165
:10051000000192185B411A4301D120F0010010BD87
:100520002DE9F04D92469B4611B1B1FA81F202E0FD
:10053000B0FA80F220329046FFF7B2FF04460F4631
:1005400040EA0A0041EA0B0153465A46084313D0D9
:10055000114653EA010019D0C8F140025046FFF796
:10056000AEFF05460E46504659464246FFF798FFF5
:10057000084305D0012004E020463946BDE8F08D4F
:100580000020054346EAE0762C4337430A9863058A
:10059000E40AA0EB08000022FD0A44EA47540A30AE
:1005A00002D500200146E9E7010510196941DDE99E
:1005B000084500196941BDE8F04DA2E72DE9F04D6D
:1005C00081EA030404F0004B21F0004514464FF08B
:1005D000000A23F0004150EA050220D054EA01024B
:1005E0001DD0C5F30A570246C5F31303C1F3130028
:1005F000C1F30A5640F4801543F48013A7EB0608B4
:10060000101BD64608F2FD3873EB050002D308F143
:10061000010801E092185B41B8F1000F03DA0020F5
:100620000146BDE8F08D00204FF480110646844657
:100630000EE0171B73EB050705D3121B63EB0503D5
:1006400006434CEA010C49084FEA300092185B411E
:1006500050EA0107EDD152EA030012D082EA040009
:1006600083EA0501084305D0101BAB4106D20122E5
:10067000002306E000224FF0004302E06FF0010289
:1006800053101AEB06004CEB085110EB0A0041EB3B
:100690000B01BDE8F04DFFF734BF70B521F000430A
:1006A00003430CD0C1F30A550024D5EB040564EBD9
:1006B0000403D617AD1AB34102DB0020014670BD1A
:1006C000201841EB025170BD30B5041E71F10004D9
:1006D00004DB4FF00044404264EB0101141E73F14F
:1006E000000405DB1C464FF00043524263EB040359
:1006F000994208BF904230BD064C074D06E0E068C5
:1007000040F0010394E8070098471034AC42F6D358
:10071000FFF712FDF0320008103300082DE9F04D0C
:1007200000231A461B1A8A4103DB00200146BDE85C
:10073000F08DC1F30A52C1F3130141F480154FF05B
:10074000000BD10702D100186D41521E002704464C
:1007500040F2FF11384601EB620A3E4680460246EF
:1007600000204FF48011FFF7AAFEC2197141BB1897
:1007700046EB0100B4EB030C75EB000C04D3E41A58
:1007800065EB000517460E46241908F101006D417E
:1007900080463428E3DDF91946EB0600091BA84121
:1007A00003D24FF0FF32134601E0002213461BEB49
:1007B000070046EB0A51BDE8F04DFFF7A2BE00006E
:1007C0002DE9FC470446D4E9000140EA01096068CC
:1007D000FFF72AFE07463A460B4600204FF08041BD
:1007E00001F074FF0546FFF72CFE1D490860A06864
:1007F00008B149F40009E06808B149F4801920699A
:1008000008B149F08009606908B149F04009A06960
:1008100008B149F01009E06908B149F008094FEA48
:1008200019408DF80600012001F0A6FE4FEA1920BC
:100830008DF80500012001F09FFE09F0FF008DF802
:100840000400012001F098FE10200090694601206C
:1008500001F010FC01A9032001F00CFCBDE8FC87AD
:1008600038000020F8B504460D46164600960CB137
:10087000802000900DB1402000906946012001F0D9
:10088000F9FBF8BD00B591B04FF4807001900720DE
:10089000029000200390049005900120069007909C
:1008A0000890C005099000200A904FF400200B909A
:1008B00000200C900D9001200E900F908020109041
:1008C00001A8FFF77DFF01F0B5FB09A800F015F8BE
:1008D00001F0B0FB4FF4200009908020109009A88F
:1008E00000F00BF801F0A6FB0020099050201090BA
:1008F00009A800F002F811B000BD7CB5054600243F
:10090000A868044328680443E8690443686808B198
:1009100044F48014E86808B144F40044286908B13C
:1009200044F40054686908B144F40064A86908B14B
:1009300044F48064200C8DF80600042001F01CFEB5
:10094000200A8DF80500042001F016FEE0B28DF8B3
:100950000400042001F010FE0820009069460120E8
:1009600001F088FB01A9032001F084FB7CBD00009D
:1009700008B50121084600F037FD01214FF404704D
:1009800000F052FD0120ADF8000000208DF80300BA
:100990006946044800F02EFC0121024800F0B5FC35
:1009A00008BD00000010014010B5FFF7E1FF00F0A6
:1009B00001F810BD00B591B0324800F03BF9324863
:1009C00006903248079000200890012009900020EE
:1009D0000A900B904FF480700C9080000D902020B6
:1009E0000E9000020F900020109006A9254800F0FC
:1009F000C7F90121234800F010F9002001908DF87B
:100A0000080001208DF809004FF4602003900020B9
:100A1000049001208DF8140001A91B484C3800F007
:100A200061F8002000F0D4FC052301220A211648B9
:100A30004C3800F07FF8012113484C3800F033F8AF
:100A4000012111484C3800F023F80F484C3800F0D1
:100A5000CDF800BF0C484C3800F03AF80028F9D126
:100A600009484C3800F0D2F800BF07484C3800F075
:100A700025F80028F9D1012103484C3800F0BBF8D3
:100A800011B000BD080002404C24014024000020A9
:100A900021B1826842F00102826003E0826822F0A4
:100AA00001028260704721B1826842F480728260E4
:100AB00003E0826822F48072826070470146002061
:100AC0008A6802F004020AB1012000E000207047A9
:100AD000014600208A6802F008020AB1012000E005
:100AE0000020704730B502460020002350680F4CAC
:100AF00020400D790C6844EA05242043506090683A
:100B00000B4C2040D1E902542C434D7944EA450472
:100B100020439060D06A20F470000C7C641EE4B224
:100B2000234340EA0350D06230BD0000FFFEF0FFD7
:100B3000FDF7F1FFF0B504460D4600200021092D18
:100B400011DDE068A5F10A0606EB4607072606FA5E
:100B500007F18843A5F10A0606EB460603FA06F1FB
:100B60000843E0600CE0206905EB4507072606FA1C
:100B700007F1884305EB450603FA06F108432061B7
:100B8000072A0FDA606B561E06EB86071F2606FA49
:100B900007F18843561E06EB860605FA06F1084360
:100BA000606322E00D2A0FDA206BD61F06EB860762
:100BB0001F2606FA07F18843D61F06EB860605FABC
:100BC00006F10843206310E0E06AA2F10D0606EB8F
:100BD00086071F2606FA07F18843A2F10D0606EBE9
:100BE000860605FA06F10843E062F0BD816841F02F
:100BF00008018160704721B1826842F4A0028260DE
:100C000003E0826822F4A00282607047816841F0AC
:100C100004018160704700BFFEE721B1026842F025
:100C20000102026004E002684FF6FE731A4002609F
:100C30007047000001684FF6FE721140016000210C
:100C4000016041608160C1604B49884208D14A49D6
:100C50000839496841F00F01474A083A51608AE073
:100C600045491431884208D143490839496841F05F
:100C7000F001414A083A51607DE03F4928318842FD
:100C800008D13D490839496841F470613A4A083A47
:100C9000516070E038493C31884208D13649083902
:100CA000496841F47041344A083A516063E032497E
:100CB0005031884208D130490839496841F47021DF
:100CC0002D4A083A516056E02B496431884208D1D8
:100CD00029490839496841F47001274A083A5160A6
:100CE00049E025497831884208D1234908394968C3
:100CF00041F07061204A083A51603CE01F49884247
:100D000006D1011F096841F00F01021F116032E096
:100D10001A491431884208D11849091F096841F05D
:100D2000F001164A121F116025E01449283188424B
:100D300008D11249091F096841F470610F4A121F56
:100D4000116018E00D493C31884208D10B49091F58
:100D5000096841F47041094A121F11600BE007490C
:100D60005031884207D10549091F096841F47021B3
:100D7000024A121F11607047080002400804024036
:100D800010B50022026847F6F0739A430C6A8B682C
:100D900023430C6923434C6923438C692343CC6967
:100DA00023434C6A23438C6A23431A430260CB6873
:100DB00043600B6883604B68C36010BD70470000E0
:100DC00010B5002440210C4800F0A1FA4FF47A70CD
:100DD00001F0B4FB0CE04FF4FA73002207A108A065
:100DE00000F086F900B110BD00F022F9601CC4B219
:100DF0000A2CF0DB00BFF6E7001801404F4B000063
:100E00004154000010B586B004460CB1012000E04A
:100E10000020024606A101A801F08EF94FF4FA73F2
:100E2000002207A101A800F063F906B010BD000080
:100E300041542B4349504D55583D25640000000056
:100E40004F4B000010B54FF47A7001F077FB04A10E
:100E5000044800F05EFF4FF4FA7001F06FFB10BD24
:100E60002B2B2B000050004008B501214FF4A0703F
:100E700000F0DAFA4020ADF8000010208DF80300F1
:100E800003208DF802006946094800F0B3F980207C
:100E9000ADF800006946074800F0ACF9402104486D
:100EA00000F035FA8021034800F02FFA08BD000059
:100EB000001801400020014030B59FB004460D46A7
:100EC0002B46224606A101A801F036F941F28833EB
:100ED000002208A101A800F00BF91FB030BD0000EE
:100EE00041542B43574A41503D222573222C222541
:100EF000732200004F4B0000F0B5B9B006460F4614
:100F000014461D46642120A8FFF747F916B1012EAB
:100F100010D107E03B4614A214A120A8009401F0D0
:100F20000BF908E03B4615A210A120A8009401F09F
:100F300003F900E000BF00BF052D06DA20AB2A460A
:100F40000FA102A801F0F8F804E020AA11A102A85C
:100F500001F0F2F84FF47A6312A216A102A800F091
:100F6000C7F839B0F0BD0000544350002225732269
:100F70002C222573222C25730000000055445000BC
:100F800041542B43495053544152543D25642C2520
:100F90007300000041542B43495053544152543D77
:100FA00025730000414C5245415920434F4E4E4558
:100FB000435400004F4B000010B5044624B1012CEF
:100FC0000AD0022C18D10FE040F6C4130BA20EA1D8
:100FD0000EA000F08DF810BD40F6C41307A20AA1C0
:100FE0000DA000F085F8F6E740F6C41303A206A1B1
:100FF0000CA000F07DF8EEE70020ECE76E6F2063B8
:1010000068616E67650000004F4B000041542B4340
:10101000574D4F44453D310041542B43574D4F44AC
:10102000453D320041542B43574D4F44453D33001D
:1010300010B54021054800F068F94FF4FA7001F04E
:101040007DFA4021014800F062F910BD001801400E
:101050002DE9F04186B007460C4615461E464FF076
:1010600000083FB1224614A1144800F052FE4FF090
:1010700001081CE0052E06DAAB1C324610A101A8BF
:1010800001F05AF804E0AA1C12A101A801F054F8DA
:101090004FF47A73002213A101A800F029F84FF44D
:1010A0007A73002210A1204600F022F880464046C4
:1010B00006B0BDE8F081000025730000005000403C
:1010C00041542B43495053454E443D25642C2564DF
:1010D0000000000041542B43495053454E443D25E8
:1010E000640000003E20000053454E44204F4B005A
:1010F0002DE9F04106460C4615461F462548B0F836
:1011000000046FF30E002349A1F80004324622A127
:10111000234800F0FEFD1CB915B90120BDE8F0819F
:10112000B8B201F00BFA00201A49B1F80014C1F36B
:101130000E01184A505411461AA000F0EDFFB4B148
:10114000ADB121461348FFF733F808B1012000E0A4
:10115000002040B929460F48FFF72AF808B10120BE
:1011600000E0002008B10120D8E70020D6E744B114
:1011700021460848FFF71CF808B10120CEE70020FF
:10118000CCE729460348FFF713F808B10120C5E76B
:101190000020C3E74C00002025730D0A000000006A
:1011A000005000402573000010B54FF4FA73002280
:1011B00007A108A0FFF79CFF08B9002010BD4FF45D
:1011C000FA7308A202A108A0FFF792FFF6E7000059
:1011D0004F4B000041542B4349504D4F44453D3146
:1011E000000000003E00000041542B43495053458D
:1011F0004E4400002DE9F041024600250026002063
:1012000000230024002791F803C00CF00F0591F88B
:1012100003C00CF0100CBCF1000F03D091F802C019
:101220004CEA050591F800C0BCF1000F31D01468FC
:1012300000202BE04FF0010C0CFA00F3B1F800C0D5
:101240000CEA03069E4220D183004FF00F0C0CFAEB
:1012500003F7BC4305FA03FC4CEA040491F803C00D
:10126000BCF1280F06D14FF0010C0CFA00FCC2F8BB
:1012700014C00AE091F803C0BCF1480F05D14FF04B
:10128000010C0CFA00FCC2F810C0401C0828D1D395
:101290001460B1F800C0BCF1FF0F34DD54680020C9
:1012A0002EE000F1080C4FF0010808FA0CF3B1F839
:1012B00000C00CEA03069E4221D183004FF00F0CC0
:1012C0000CFA03F7BC4305FA03FC4CEA040491F85A
:1012D00003C0BCF1280F05D100F1080C08FA0CF886
:1012E000C2F8148091F803C0BCF1480F07D100F197
:1012F000080C4FF0010808FA0CF8C2F81080401CE6
:101300000828CED35460BDE8F08141617047016187
:10131000704700BFFEE700BFFEE7704708B54FF417
:10132000A06000F049F812208DF8000001208DF82F
:10133000010000208DF8020001208DF803006846AE
:1013400000F002F808BD000070B5002100230F2254
:10135000C47804B3154C246804F4E064C4F5E06474
:10136000210AC1F10403CA40447804FA03F18478E5
:101370001440214309010E4C0678A155047804F06D
:101380001F050124AC4005786D11AD0005F1E02585
:10139000C5F8004109E0047804F01F050124AC40C1
:1013A000044D0678761145F8264070BD0CED00E03E
:1013B00000E400E080E100E002490143024A1160DC
:1013C000704700000000FA050CED00E070470000D7
:1013D00001460020034A506820F440400843506012
:1013E000704700000010024029B1064A52690243CA
:1013F000044B5A6104E0034A52698243014B5A612B
:10140000704700000010024029B1064AD269024329
:10141000044BDA6104E0034AD2698243014BDA618A
:10142000704700000010024029B1064A9269024349
:10143000044B9A6104E0034A92698243014B9A612A
:10144000704700000010024030B500210022002447
:1014500000232D4D6D6805F00C0121B1042905D044
:10146000082923D105E0294D056022E0274D0560BC
:101470001FE0254D6D6805F47012234D6D6805F46D
:101480008034022505EB92421CB9214D554305607D
:101490000BE01D4D6D6805F400351DB11C4D554325
:1014A000056002E0194D5543056002E0174D0560E7
:1014B00000BF00BF144D6D6805F0F0010909154D1E
:1014C0006B5C0568DD4045600F4D6D6805F4E061BB
:1014D000090A104D6B5C4568DD4085600A4D6D68FA
:1014E00005F46051C90A0B4D6B5C4568DD40C56071
:1014F000054D6D6805F44041890B074D6B5CC5686F
:10150000B5FBF3F5056130BD0010024000127A0012
:1015100000093D000C0000201C0000202DE9F041D6
:1015200006460F464FF00008002400250120204900
:101530000860022001F020F801201E49C1F8B40122
:10154000022001F019F80020194908310860022032
:1015500001F012F8344622E04FF0000816E00020B7
:10156000134908606806050E022001F005F81148CD
:10157000D0F824012843C5B201200D49086002209B
:1015800000F0FAFF08F1010000F0FF08B8F1080FC1
:10159000E5DB381900F8015C0025601EC4B2002CA0
:1015A000DADC0120024908310860BDE8F081000062
:1015B000AC01224200002242704710B500F002F850
:1015C00010BD00000CB50020019000903348006869
:1015D00040F480303149086000BF3048006800F4B2
:1015E000003000900198401C0190009818B90198B3
:1015F000B0F5A06FF1D12948006800F4003010B1B7
:101600000120009001E0002000900098012843D1C3
:101610002348006840F0100021490860084600682F
:1016200020F0030008600846006840F002000860EF
:101630001A484068194948600846406848600846AA
:10164000406840F4806048600846406820F47C10A0
:1016500048600846406840F4E81048600846006862
:1016600040F08070086000BF0C48006800F0007017
:101670000028F9D00948406820F003000749486075
:101680000846406840F00200486000BF03484068D8
:1016900000F00C000828F9D10CBD00000010024039
:1016A00000200240042808D14FF0E021096941F0F0
:1016B00004014FF0E022116107E04FF0E0210969D9
:1016C00021F004014FF0E0221161704770470000E3
:1016D00010B51348006840F0010011490860084641
:1016E0004068104908400E494860084600680E49A5
:1016F00008400B4908600846006820F48020086014
:101700000846406820F4FE0048604FF41F008860DF
:10171000FFF753FF4FF000600449086010BD000060
:10172000001002400000FFF8FFFFF6FE08ED00E0A9
:101730000EB501210846FFF767FE4FF47A70ADF849
:1017400004004720ADF800000020ADF80600ADF819
:10175000020069464FF0804000F066F801218807DA
:1017600000F035F801221146900700F053F80121EE
:10177000880700F032F800210120FFF745FE0EBD7A
:1017800010B50121880700F034F840B10448006822
:10179000401C034908600121880700F01BF810BDB8
:1017A0000400002008B54FF4E060FFF705FE1C20A0
:1017B0008DF8000000208DF8010003208DF8020054
:1017C00001208DF803006846FFF7BEFD08BDCA433F
:1017D00002827047CA430282704721B1028842F0F8
:1017E0000102028004E002884FF6FE731A40028074
:1017F000704730B50246002000230024158A05EA10
:101800000103958905EA010413B10CB1012000E040
:10181000002030BD1AB183890B43838102E08389A4
:101820008B43838170470000002202881D4B984241
:101830000ED01D4B98420BD0B0F1804F08D01B4BFF
:10184000984205D01A4B984202D01A4B984204D1C4
:101850004FF68F731A404B881A43174B984207D0A4
:10186000164B984204D04FF6FF431A40CB881A43D8
:1018700002808B8883850B8803850A4B98420BD0A6
:10188000094B984208D00E4B984205D00D4B984218
:1018900002D00D4B984201D10B7A0386012383823B
:1018A00070470000002C014000340140000400405B
:1018B00000080040000C00400010004000140040F0
:1018C00000400140004401400048014010B540F292
:1018D0002551264800F058F920B3244800F010FAAA
:1018E000C4B2214622A000F017FC322C02D1002005
:1018F000204908602048B0F80004C0F30E0040F210
:10190000FF3188420EDA1C49B1F80014C1F30E0011
:10191000411C194AB2F8002461F30E021649A1F8DD
:1019200000240C5440F22441104800F02DF9012805
:101930001AD11148B0F8000420F4004000F500402E
:101940000D49A1F80004094800F0DAF9C4B20BA06F
:1019500000F0E2FB0EA10848FEF72AFC08B10120C6
:1019600000E000200D49086010BD0000005000405C
:1019700025630000300000204C0000200D0ACAD56D
:10198000B5BDD2BBD6A1CAFDBEDD0D0A0000000068
:10199000434C4F5345440D0A00000000280000202E
:1019A00010B586B0044601213120FFF73DFD01212D
:1019B0000805FFF729FD03208DF8160018208DF883
:1019C00017004FF48050ADF8140005A91D48FFF72B
:1019D00011FC0420ADF814008DF8170005A91A4871
:1019E000FFF708FC01940020ADF80800ADF80A00EC
:1019F000ADF80C00ADF810000C20ADF80E0001A9F8
:101A0000124800F011F935208DF8000002208DF801
:101A100001008DF8020001208DF803006846FFF7F1
:101A200093FC4021094800F08DF8012240F2255135
:101A3000064800F0D3F80121044800F08CF806B005
:101A400010BD000000100140001401400050004093
:101A500010B540F225510C4800F096F870B10A48D4
:101A600000F04EF9C4B22146074800F04EF900BF1D
:101A70004021054800F07BF80128F9D140210248B7
:101A800000F060F810BD00000038014010B586B0CD
:101A9000044601210420FFF7C7FC01218803FFF75A
:101AA000C3FC01210846FFF7BFFC4FF40070ADF8FE
:101AB000140003208DF8160018208DF8170005A9D2
:101AC0001E48FFF797FB4FF48060ADF81400042028
:101AD0008DF8170005A91948FFF78CFB0194002029
:101AE000ADF80800ADF80A00ADF80C00ADF8100034
:101AF0000C20ADF80E0001A9114800F095F8012165
:101B00000F4800F028F840210D4800F01BF8012292
:101B100040F225510A4800F061F825208DF80000B8
:101B200003208DF801008DF8020001208DF80300DC
:101B30006846FFF709FC06B010BD00000008014030
:101B40000038014001F40072B2F5007F00D100BFFF
:101B5000CA430280704721B1828942F400528281D7
:101B600004E082894DF6FF731A4082817047024675
:101B70000020B1F5007F00D100BF13880B400BB1EE
:101B8000012000E00020704770B5024600240023C9
:101B90000025002040F66A16B14200D100BFC1F313
:101BA000421501F01F03012606FA03F3012D02D1AD
:101BB0009689334006E0022D02D1168A334001E0B7
:101BC000968A33400C12012606FA04F41688344033
:101BD00013B10CB1012000E0002070BDF0B5034648
:101BE000002400260025002040F66A17B94200D1E3
:101BF00000BF1846C1F3421401F01F06012707FA7F
:101C000006F5012C01D10C3004E0022C01D110307A
:101C100000E014301AB107682F43076002E007683C
:101C2000AF430760F0BD00002DE9F04786B00546E0
:101C30000E460024A24600BFA1460027B08900B18D
:101C400000BF2F462C8A4CF6FF700440F0880443F6
:101C50002C82AC894EF6F3100440B08831890843D9
:101C6000718908430443AC81AC8A4FF6FF400440BD
:101C7000B0890443AC8201A8FFF7E6FB1F48874206
:101C800002D1DDF810A001E0DDF80CA0A88900F475
:101C9000004040B10AEBCA0000EB0A10316849006D
:101CA000B0FBF1F807E00AEBCA0000EB0A1031685C
:101CB0008900B0FBF1F86420B8FBF0F004012009C2
:101CC000642101FB1089A88900F4004040B1322052
:101CD00000EBC900B0FBF1F000F00700044308E09E
:101CE000322000EB09106421B0FBF1F000F00F008E
:101CF00004432C8106B0BDE8F087000000380140A5
:101D000001468888C0F308007047C1F3080282804A
:101D100070470FB470B586B006460CA8019073E00A
:101D20000B9800785C281CD10B98401C0B90007815
:101D30006E2809D072280FD10D213046FFF7E5FF3C
:101D40000B98401C0B900BE00A213046FFF7DDFF9B
:101D50000B98401C0B9003E00B98401C0B9000BFAD
:101D60004BE00B980078252840D10B98401C0B9035
:101D70000078642818D0732833D1019810C80190D6
:101D80000BE021783046FFF7C0FF00BF80213046CE
:101D9000FFF7EDFE0028F9D0641C20780028F0D170
:101DA0000B98401C0B9020E0019820C801900A225B
:101DB00002A9284600F010FC02AC0BE02178304666
:101DC000FFF7A3FF00BF80213046FFF7D0FE0028B9
:101DD000F9D0641C20780028F0D10B98401C0B909F
:101DE00003E00B98401C0B9000BF06E00B9810F826
:101DF000011B0B903046FFF788FF00BF8021304663
:101E0000FFF7B5FE0028F9D00B980078002887D19D
:101E100006B070BC5DF814FB00BFFEE710B5FFF71D
:101E200023F814A000F078F980211B48FFF76FFA1F
:101E3000FEF7C6FF19A000F06FF90020FFF7BCF80D
:101E400000BF19A11BA0FFF737F80028F9D0002028
:101E5000FEF7D8FF00BF052318A21AA10020FFF744
:101E60004BF80028F7D000BFFFF79EF90028FBD001
:101E700010BD00000D0AD5FDD4DAC5E4D6C3455324
:101E80005038323636C7EBC4CDD0C4B5C8B4FD2EF9
:101E90002E2E0D0A00000000002001404154B3C95D
:101EA000B9A60D0A000000006C696E7875313233F6
:101EB000343536004744555430340000383039301A
:101EC000000000003139322E3136382E33312E32B7
:101ED0003438000010B504460523002221460120B5
:101EE000FFF7B6F824480068401C234908600846FC
:101EF0000068142807D30020086020A000F00CF927
:101F000001202549087024480078002833D04FF478
:101F1000FA7000F013FB00201F490870FEF792FFD3
:101F200000BF1EA000F0F8F800BF25A127A0FEF713
:101F3000C3FF0028F9D000BF052326A227A1002057
:101F4000FEF7DAFF0028F7D028A000F0E5F86420BB
:101F500000F0F4FAFFF728F918B12B4800680128BF
:101F600006D12AA000F0D8F8002027490860D8E759
:101F70002BA000F0D1F810BD300000200D0AB3AC4A
:101F8000B9FD3230B4CEC3BBBDD3CADCB5BDD3A618
:101F9000B4F00D0A000000002C0000200D0AC7EB71
:101FA000C9D4B5C8A3ACD5FDD4DAD6D8C1ACC8C89D
:101FB000B5E3BACDB7FECEF1C6F72E2E2E0D0A0030
:101FC0006C696E7875313233343536004744555478
:101FD0003034000038303930000000003139322E02
:101FE0003136382E33312E32343800000D0AD6D82F
:101FF000C1ACC8C8B5E3BACDB7FECEF1C6F7B3C918
:10200000B9A60D0A00000000280000200D0A544364
:1020100050436C6F7365466C6167CEAA310D0A0040
:102020000D0AC5E4D6C3CDB8B4ABB3C9B9A60D0A81
:102030000000000008B51CE0002201211046FEF758
:1020400011FC69460120FFF769FA9DF8000000F0D5
:10205000400020B10A2000F071FA002008BD9DF870
:10206000000000F0800008B90120F7E7032000F02D
:1020700065FAE1E72DE9F04105460E460027002408
:10208000A046012022490860022000F075FA0120D4
:102090002049C1F8B401022000F06EFA00201C496A
:1020A00008310860022000F067FA2C4628E0301959
:1020B00010F8017C4FF000081DE000201449086072
:1020C00007F08000802803D10120091F086003E089
:1020D00000200F49091F0860022000F04DFA01207E
:1020E0000B490860022000F047FA7806070E08F155
:1020F000010000F0FF08B8F1080FDEDB601EC4B27B
:10210000002CD4DC0120024908310860BDE8F081D0
:10211000AC012242000022420FB4054B10B503A9C6
:10212000044A029800F0BCF810BC5DF814FB0000F3
:10213000B5250008440000200FB4084B10B504A9D1
:1021400002AA039800F0ACF8044602A9002000F0AF
:1021500083F9204610BC5DF814FB000059240008E8
:10216000490050EAC12018BF04204A0D18BF40F0B2
:10217000010040F2FF72B2EB515F08BF40F0020075
:10218000012808BF052070472DE9F0414F1E00EBE4
:10219000C7010446D1E9000115461E4637F0060284
:1021A0000DD02A463346FEF7BCF87F1E04EBC7036A
:1021B000D3E90023FEF70EF837F00602F1D1022F23
:1021C00025D0042F13D0062F18BFBDE8F0812A4672
:1021D0003346FEF7A6F8D4E90A23FDF7FBFF2A46AB
:1021E0003346FEF79EF8D4E90823FDF7F3FF2A46AD
:1021F0003346FEF796F8D4E90623FDF7EBFF2A46AF
:102200003346FEF78EF8D4E90423FDF7E3FF2A46B0
:102210003346FEF786F8D4E90223FDF7DBFF2A46B2
:102220003346FEF77EF8D4E90023BDE8F041FDF720
:10223000D1BF00000022134610460149FEF7BEB987
:102240000000F03FFDF7C6BF0022134610461146BE
:10225000FEF7B4B940F2013200204FF0E041FEF742
:102260001CBA0000024A00201107FEF716BA00004F
:1022700001FDFFFF02E008C8121F08C1002AFAD1C1
:1022800070477047002001E001C1121F002AFBD1F6
:1022900070470000014908607047000048000020B6
:1022A0002DE9FF4F8BB09A460F460546002606E003
:1022B00025280BD052460D9990476D1C761C287826
:1022C0000028F5D10FB03046BDE8F08F0024A046BD
:1022D0000122604900E0044315F8013F203B02FA67
:1022E00003F00842F7D128782E2817D115F8010FEE
:1022F00044F004042A280ED06FF02F022878A0F1B1
:10230000300109290AD808EB880102EB410100EBF2
:1023100001086D1CF2E757F8048B6D1C28786928BA
:102320003ED006DC0028CDD063280BD0642804D131
:1023300036E0732810D075284BD052460D9990473F
:10234000761C85E017F8040B8DF8000000208DF84E
:102350000100E946012003E057F8049B4FF0FF30ED
:1023600061074FF0000401D40AE0641C44450DDA13
:102370008442FADB19F804100029F6D106E0641C47
:102380008442FCDB19F804100029F8D1264404E04B
:1023900019F8010B52460D999047641EF8D257E088
:1023A00001CF4FF00A0B002802DA40422D2102E053
:1023B000210504D52B218DF82410012103E0E1072C
:1023C00005D02021F7E70DF1200908910CE000214C
:1023D000F9E701CF4FF00A0BF9E75946FEF74AF843
:1023E00001F1300209F8012D0028F6D1ADEB09000A
:1023F00000F1200B600701D44FF00108D84502DD41
:10240000A8EB0B0000E000208046002406E009A8AD
:102410005246005D0D999047641C761C08988442D2
:10242000F5DB04E0302052460D999047761CB8F158
:102430000001A8F10108F5DC05E019F8010B52468E
:102440000D999047761CBBF10001ABF1010BF4DC58
:102450006D1C34E7092801000A68531C0B601070DA
:10246000704700001CB501211020FEF7DDFF4FF47E
:102470003050ADF8000010208DF8030003208DF8D7
:10248000020069461D48FEF7B5FE4FF430511B4867
:10249000FEF73DFF48208DF803004FF40070ADF8C3
:1024A000000003208DF8020069461448FEF7A2FEE2
:1024B000FF208DF8040001A90120FFF7DBFDFF20BC
:1024C0008DF8040001A90120FFF7D4FDFF208DF84D
:1024D000040001A90120FFF7CDFDFF208DF80400C5
:1024E00001A90120FFF7C6FDFF208DF8040001A916
:1024F0000120FFF7BFFDFEF7C5F91CBD001001402C
:1025000010B504466FF00400FFF7CCF8E11704EBB8
:102510005171C1F3C701074A11701046007800EBF2
:102520004001C1EBC0104FF6FF7101EAC000024943
:10253000088010BD200000202200002001460D4A26
:1025400012884A434FF0E0235A6100229A61012227
:102550001A6100BF4FF0E022106900F001021AB1C9
:1025600000F48032002AF5D000224FF0E0231A61F7
:102570009A6170472200002001460D4A12784A43B2
:102580004FF0E0235A6100229A6101221A6100BFD4
:102590004FF0E022106900F001021AB100F480321D
:1025A000002AF5D000224FF0E0231A619A617047AB
:1025B0002000002070B504460D46E1B20548FFF743
:1025C000A4FB00BF80210348FFF7D1FA0028F9D00F
:1025D000204670BD00380140F0B503460D46164652
:1025E000002729460A2E03D0002008702846F0BD97
:1025F00033B9302001F8010B002008702846F6E7B7
:10260000002B03DA2D2001F8010B5B4242F210721D
:102610000DE093FBF2F404B937B104F1300001F896
:10262000010B04FB123301270A2092FBF0F2002A6F
:10263000EFDC002008702846D9E7000000B5E5B0BF
:102640004FF4C8721C4901A8FDF78EFDFFF740F852
:102650004820FFF755FF4FF4A060FEF7ADFEFEF7F0
:102660005DFE4FF4E130FFF711FAFEF79DF9FFF739
:10267000F9FE1420FFF780FFFFF7F4FE1420FFF7A8
:102680007BFFFFF755F8FFF78DF801210846FEF7AD
:10269000BBFE4FF4E130FFF783F9FFF7BFFB07A064
:1026A000FFF73AFD41F28830FFF748FF01A8FFF736
:1026B00011FC002065B000BDD030000848656C6C8E
:1026C0006F576F726C64210A000000002DE9F04D15
:1026D00016460F4694B01C4621F0004123F00042FC
:1026E000002814BF4FF0010C4FF0000C0CEB470C0E
:1026F000FE4B0CEB03054FEA630C65452BD335000D
:1027000018BF012505EB44051D44F94B9D4222D31A
:10271000F84B52EA060C02D09F4205D148B914B0DA
:1027200000201946BDE8F08D002808BF4FF0000CCE
:1027300001D04FF0010C0CEB470313F5001F0AD832
:10274000002E14BF4FF0010C4FF0000C0CEB4403B3
:1027500013F5001F07D914B0324623463946BDE8A9
:10276000F04DFFF76FBDDFF890834FF0000A002FA8
:10277000B8BF424523DAE14B9A42A8BF4FF0020AA4
:102780001DDADC4B93421ADCDD4B03EB2253142B96
:1027900008DDC3F1340C26FA0CF303FA0CFCB44543
:1027A0000DD108E05EB9C3F1140C22FA0CF303FA60
:1027B0000CFC944503D103F00103C3F1020A51EA72
:1027C00000031BD1002C19DA002F18BFBAF1020F39
:1027D00002D0BAF1010F07D00220FFF75BFD14B061
:1027E000BDE8F04DFFF726BD0220FFF753FDFFF7D0
:1027F00021FD14B081F00041BDE8F08D330070D1AF
:10280000424525D107F1804212F5801201BF002810
:102810000020B84914B008BFBDE8F08DB548884223
:1028200007DC002CA1BF1846214614B0BDE8F08D8E
:1028300007E0002CBFBF184684F0004114B0BDE88B
:10284000F08DB0497944D1E9000114B0BDE8F08DB4
:10285000DFF8A0C262452AD1002C24DA39B1414503
:1028600017D1002804BF002002461CD106E040B169
:102870000220FFF70FFDFFF7EDFC0A46394600F096
:10288000D7BA9D4A394614B0002062F31E01BDE854
:10289000F08D08DA14B03B46BDE8F04D024600204A
:1028A0006146FDF78BBE14B03946BDE8F08D414559
:1028B00017DAB4F1804F0CD0A4F10053B3F1FF53F9
:1028C0000FD13B1E0DDB14B01946BDE8F04D00F0F2
:1028D000D9BB3B4614B00246BDE8F04D1946FDF7A2
:1028E00020BD050027F000433AD1E1B1414537D181
:1028F000002F06DD002CA1BF0020414614B0BDE82A
:10290000F08D002F01DD002C1FDB002F16DA002CCC
:1029100014DBBAF1010F4FF0000014BF76497A4979
:1029200014B0BDE8F08DBAF1020F18BF002F0CD023
:10293000BAF1010F09D1002F07DA0BE0002FB8BF61
:10294000002C0DDABAF1010F04D0002014B00146BA
:10295000BDE8F08D14B000204FF00041BDE8F08DCF
:102960004FF0010808EBE77CCDF814C05CEA0A0CD4
:102970000DD0DFF898C162457EDDDFF894C1654B6C
:10298000624512DD8B420ADB002C18DB23E00120BC
:10299000FFF780FC14B0BDE8F04DFFF755BC554A79
:1029A0008A4202DC002C0ADC15E0994202DA002C93
:1029B00011DA04E04F4B994219DD002C0BDD0220A7
:1029C000FFF768FCFFF746FC4B4A14B061F31E02A8
:1029D0001146BDE8F08D0220FFF75CFCFFF742FCDA
:1029E000444A14B061F31E021146BDE8F08D002286
:1029F0003946FDF790FC07460D466FF00102FDF7E2
:102A00004CFE4FF05532444BFDF788FC3A462B46BE
:102A1000FDF787FC0022414BFDF780FC80468B468A
:102A20003A462B4610461946FDF77BFC42465B466C
:102A3000FDF777FC88460E904FF0C042384B384681
:102A40002946FDF76EFC83460091364A344B4146D9
:102A50000E98FDF766FC80460191334A334B3846A9
:102A60002946FDF75EFC4246019BFDF754FC0D46EE
:102A700002460B460C9000E011E058460099FDF725
:102A8000A9FB002788465A463846009BFDF743FCC1
:102A90002B460C9AFDF742FC024600F079B9002063
:102AA000B1F5801F07DA352228461946FDF7F5FDF6
:102AB00005466FF0340000EB2150A0F2FF3001908A
:102AC000C1F3130040F07F6141F040510291184979
:102AD0008842D8BF4FF0000B35DD16498142C8BF90
:102AE0004FF0010B2FDC4FF0000B25E0FFFF1F0024
:102AF000FFFF0F000000F03F0000F07F00004043A8
:102B000001FCFFFFA00A00000000F0FF0000E04110
:102B10000000F043FFFFEF3F5555D53F0000E03F79
:102B20004715F73FFE822B6544DF5DF80BAE543E40
:102B30008E9803007AB60B000198401C0190029811
:102B4000A0F580100290FF480299784400EBCB007A
:102B50000991D0E9002328460B931292FDF7DBFB85
:102B600000910A9028460B9B129A0999FDF732FBB7
:102B700002460B460020F449FDF720FDCDE90C018B
:102B80000B46024600990A98FDF7CBFB0690EF48EA
:102B90008846002778440299006810904FF0005052
:102BA00040EA610000EB8B4000F5002102910B9B95
:102BB000129A1098FDF7AFFB2A46099BFDF7AEFB72
:102BC0003A464346FDF7ADFB089112903846414620
:102BD000029B109AFDF7A5FB009B0A9AFDF79EFB4E
:102BE000089B129AFDF797FBDDE90C23FDF799FB93
:102BF0000B91069A1290434610461946FDF791FB39
:102C000005460246D2480B460A9106217844FFF752
:102C1000BBFA0A9B2A460891029010461946FDF716
:102C200080FB089B029AFDF77CFB05460991434611
:102C300038461946069AFDF7CDFA0B9B129AFDF716
:102C400070FB2A46099BFDF7C5FACDE908013A4613
:102C5000434610461946FDF764FB0A910022BD4B1E
:102C60000090FDF7B7FADDE90823FDF7B3FA0D464A
:102C70003A46B84B3846FDF74EFB0A9B009AFDF7E3
:102C80004AFBDDE90823FDF749FBCDE908013A4697
:102C90002B4610464146FDF744FB00910A90DDE9C2
:102CA00008014346069AFDF73CFB069088462B46F2
:102CB0003A460B991298FDF734FB4346069AFDF706
:102CC00089FA80460B4602460D9100990A98FDF755
:102CD00081FA00200F460546009B0A9AFDF71BFB70
:102CE00042460D9BFDF71AFB88460E904FF060425E
:102CF000994B28463946FDF714FB02910090974AFC
:102D0000954B41460E98FDF70CFB80460391944A83
:102D1000944B28463946FDF704FB4246039BFDF7DA
:102D200059FA914A7A4402EBCB03D3E90023FDF729
:102D300051FA054607910198FDF765FB0C90039148
:102D40002A46079B02990098FDF744FA874A7A447D
:102D500002EBCB03D3E9002393460193FDF73AFA44
:102D6000039B0C9AFDF736FA002788463846039BEA
:102D70000C9AFDF7D0FA5A46019BFDF7CCFA029B5C
:102D8000009AFDF7C8FA2A46079BFDF7C7FA0246E4
:102D90000020069005986C4DAAF10103184301D15B
:102DA000734D069000200B46049030462146FDF7F7
:102DB000B8FA82468B46234630461946049AFDF7F8
:102DC000AAFA3A464346FDF7ACFA52465B46FDF78F
:102DD00001FA06468A463A46434621460498FDF7DC
:102DE000A0FA04460F4632465346FDF7F3F9614A0E
:102DF0008B46914221DBABEB020353EA000210D178
:102E000022463B46FDF787FA804603915A4A5B4BC0
:102E100030465146FDF7DEF94246039BFDF754FC70
:102E200027D20220FFF736FAFFF714FA0A4629469E
:102E300014B062F31E01BDE8F08D514B2BF000423F
:102E40009A4216D34F4A0BEB020353EA000208D111
:102E500022463B46FDF75FFA32465346FDF734FC07
:102E600007D80220FFF716FAFFF7FCF90A462946B1
:102E7000DEE72BF000404449444A01EB20514FF07B
:102E80000008824223DA481C4FF4801121FA00F036
:102E900058443F4AC0F30A517A443E4BA1F2FF31F5
:102EA000CB4020EA0303C0F3130040F4801CC1F1BF
:102EB000140012682CFA00F8BBF1000FB8BFC8F17B
:102EC000000820463946FDF726FA04460F462246FA
:102ED0003B4630465146FDF77DF94FF0000B5A4610
:102EE0002D4B58460391FDF71CFA00910A902B4A8E
:102EF0002B4B58460399FDF714FA04910290224691
:102F00003B4658460399FDF706FA32465346FDF70D
:102F100005FA244A244BFDF704FA049B029AFDF7B4
:102F200059F907468A46009B0A9AFDF753F9044669
:102F30000E46009B0A9AFDF7EEF93A465346FDF716
:102F4000EDF933E0120700000000F03F50070000E9
:102F5000800600000000084009C7EE3FFD033ADC90
:102F6000F5015B14E02F3EBE580500001E05000071
:102F70000000F0BF00009040FE822B654715973C93
:102F800000CC904000346F3F01FCFFFF0000E03FA9
:102F90004C040000FFFF0F00432EE63F396CA80CE5
:102FA000615C20BEEF39FAFE422EE63F074622461C
:102FB00033460F9110461946FDF7B3F98346024692
:102FC0002E488A460B4605217844FFF7DDF85A461D
:102FD0005346FDF7A6F922463346FDF79FF9824690
:102FE0008B463A46204631460F9BFDF79AF93A4602
:102FF0000F9BFDF7EFF80F460A9000224FF0804339
:1030000050465946FDF787F90391009052465B46BA
:1030100020463146FDF785F9039B009AFDF7CEFA6D
:103020003B460A9AFDF777F922463346FDF773F9D6
:103030000022134BFDF772F90E46044601EB0851CE
:103040000815002810DC424620463146FDF725FBD6
:10305000FFF786F8042808BFFFF704F94246204628
:103060003146FDF71AFB044606980B4614B022467B
:103070002946BDE8F04DFDF754B90000F402000008
:103080000000F03F2DE9F04106460F46FDF746FBF4
:1030900004000D4618BF0120284320F00040C0F175
:1030A0007F6000F1E040C00F0ED0301C18BF01203F
:1030B000384320F00040C0F17F6000F1E040C00FD5
:1030C00004BF0120FFF7E6F820462946BDE8F0815D
:1030D0007B22626C75657465657468223A312C22B6
:1030E00077696669223A20312C22726174654C69D5
:1030F0007374223A5B7B2264657669636549642256
:103100003A312C2274696D65223A22323031372DE2
:1031100030312D30312032303A32303A3230222CB8
:10312000227369676E616C223A302C226865617285
:1031300074417667223A33322C2262726561746878
:10314000417667223A33322C22656E7641766722C9
:103150003A33327D2C7B226465766963654964224B
:103160003A312C2274696D65223A22323031372D82
:1031700030312D30312032303A32303A3230222C58
:10318000227369676E616C223A302C226865617225
:1031900074417667223A33322C2262726561746818
:1031A000417667223A33322C22656E764176672269
:1031B0003A33327D5D7D0000000000000000000019
:1031C00000000000000000000000000000000000FF
:1031D00000000000000000000000000000000000EF
:1031E00000000000000000000000000000000000DF
:1031F00000000000000000000000000000000000CF
:1032000000000000000000000000000000000000BE
:1032100000000000000000000000000000000000AE
:10322000000000000000000000000000000000009E
:10323000000000000000000000000000000000008E
:10324000000000000000000000000000000000007E
:10325000000000000000000000000000000000006E
:10326000000000000000F03F000000000000F83FF8
:1032700000000000000000000000004003B8E23F32
:10328000000000000000000006D0CF43EBFD4C3EE4
:10329000033333333333E33FFFAB6FDBB66DDB3FD9
:1032A0004D268F515555D53F01411DA96074D13F21
:1032B00065DBC9934A86CD3FEF4E454A287ECA3F1B
:1032C0003E5555555555C53F93BDBE166CC166BF9D
:1032D0002CDE25AF6A56113FF16BD2C541BDBBBE96
:1032E000D0A4BE726937663E0000000000000000F6
:1032F00010330008000000204C0000007422000879
:103300005C3300084C000020040800008422000800
:1033100000000000000000000000000000000000AD
:103320000102030401020304060708090204060857
:10333000000000000000000000000000000000008D
:10334000000000000000000000000000000000007D
:0C33500000000000000000000000000071
:0400000508000131BD
:00000001FF
